S00C00006D61696E2E7372656373
S11300000C942A000C945B000C945B000C945B0031
S11300100C945B000C945B000C945B000C945B00F0
S11300200C945B000C945B000C945B000C945B00E0
S11300300C945B000C945B000C945B000C945B00D0
S11300400C945B000C945B000C945B000C945B00C0
S11300500C945B0011241FBECFE5D4E0DEBFCDBFFE
S113006010E0A0E6B0E0ECE5FCE002C005900D92E3
S1130070A03DB107D9F720E0A0EDB0E001C01D928A
S1130080AC3DB207E1F70FE311E00F2EFDE2EF2ED6
S1130090F1E0FF2EF02D40E052E16AE770E080E8E5
S11300A095E20E94D900B701C8010E94C6010E94CE
S11300B05D000C942C060C940000CF93DF93CDB715
S11300C0DEB78AE690E0892F8F938AE690E08F93DB
S11300D00E9411020F900F902091680030916900E6
S11300E0809166009091670040ED50E0B9010E9454
S11300F078014091D0005091D10020916800309156
S113010069008091660090916700652F6F934F930B
S1130110432F4F932F93292F2F938F9380E990E0B0
S1130120892F8F9380E990E08F930E9411028DB7FD
S11301309EB708960FB6F894DEBF0FBECDBF2091D0
S11301406800309169008091660090916700B90160
S11301500E945B019093D1008093D0004091D00025
S11301605091D1002091680030916900809166001F
S113017090916700652F6F934F93432F4F932F9365
S1130180292F2F938F9380EB90E0892F8F9380EB0F
S113019090E08F930E9411028DB79EB708960FB618
S11301A0F894DEBF0FBECDBF80E090E0DF91CF9129
S11301B00895CF93DF93CDB7DEB72C970FB6F8949D
S11301C0DEBF0FBECDBF9C838B834D835E836F8365
S11301D078878B819C81CC01A0E0B0E0880F991FC7
S11301E0AA1FBB1F880F991FAA1FBB1F880F991F27
S11301F0AA1FBB1F880F991FAA1FBB1F9C01AD011B
S11302008D819E81AF81B885BC01CD010E94A4017E
S1130210DA01C90101979A83898380E490E02981F6
S11302203A81232F3327FC01208389E290E029813E
S1130230FC0120838AE290E028E1FC01208380E431
S113024090E02EE8FC0120832C960FB6F894DEBFD4
S11302500FBECDBFDF91CF910895CF93DF93CDB77C
S1130260DEB700008BE290E0FC0180818823D4F7A4
S11302708CE290E0FC018081DF91CF910895CF93CF
S1130280DF931F92CDB7DEB7898300008BE290E045
S1130290FC018081882F90E080729927892BB1F32B
S11302A08CE290E02981FC01208381E090E00F90B2
S11302B0DF91CF910895CF93DF9300D000D0CDB7D5
S11302C0DEB79A8389837C836B8329813A818B810E
S11302D09C81821793071CF489819A8102C08B81C7
S11302E09C810F900F900F900F90DF91CF91089504
S11302F0CF93DF9300D000D000D0CDB7DEB79A8380
S113030089837C836B835E834D8329813A818B81CE
S11303109C818217930744F48D819E812B813C81BB
S1130320FC013183208307C08D819E8129813A811C
S1130330FC013183208326960FB6F894DEBF0FBEEE
S1130340CDBFDF91CF910895A1E21A2EAA1BBB1B4A
S1130350FD010DC0AA1FBB1FEE1FFF1FA217B3078D
S1130360E407F50720F0A21BB30BE40BF50B661FA3
S1130370771F881F991F1A9469F760957095809567
S113038090959B01AC01BD01CF0108950F931F937C
S1130390CF93DF93009731F46115710519F480E070
S11303A090E03AC08B01EC016EE070E081E090E0F7
S11303B00E94F903FC01892B91F380E883830115E2
S11303C0110571F01387028781E883838091D2003D
S11303D09091D300892B21F4F093D300E093D200C1
S11303E02097C9F0D187C0878381826083838091FD
S11303F0D4009091D500892B71F4F093D500E0934B
S1130400D4008091D6009091D700892B21F4F093E9
S1130410D700E093D600CF01DF91CF911F910F91C8
S11304200895A0E0B0E0E7E1F2E00C940506AE0127
S11304304B5F5F4FFA0161917191AF018091D400DC
S11304409091D5000E942702E2E00C942106ACE0D2
S1130450B0E0EDE2F2E00C94F5057C016B018A0159
S1130460FC0117821682838181FFBDC1CE010196F2
S11304704C01F7019381F60193FD859193FF8191DE
S11304806F01882309F4ABC1853239F493FD85915A
S113049093FF81916F01853229F4B70190E00E94A6
S11304A05F05E7CF512C312C20E02032A0F48B32B1
S11304B069F030F4803259F0833269F420612CC041
S11304C08D3239F0803339F4216026C022602460F3
S11304D023C0286021C027FD27C030ED380F3A30F3
S11304E078F426FF06C0FAE05F9E300D1124532EE7
S11304F013C08AE0389E300D1124332E20620CC0C4
S11305008E3221F426FD6BC1206406C08C3611F4B2
S1130510206802C0883641F4F60193FD859193FF6B
S113052081916F018111C1CF982F9F7D9554933094
S113053028F40C5F1F4FFFE3F9830DC0833631F0BD
S1130540833771F0833509F05BC022C0F8018081E4
S113055089830E5F1F4F44244394512C540115C0CA
S11305603801F2E06F0E711CF801A080B18026FF03
S113057003C0652D70E002C06FEF7FEFC5012C87CB
S11305800E9454052C0183012C852F77222E17C03D
S11305903801F2E06F0E711CF801A080B18026FFD3
S11305A003C0652D70E002C06FEF7FEFC5012C879B
S11305B00E9442052C012C852068222E830123FCF5
S11305C01BC0832D90E048165906B0F4B70180E2B1
S11305D090E00E945F053A94F4CFF50127FC8591E1
S11305E027FE81915F01B70190E00E945F05311001
S11305F03A94F1E04F1A51084114510471F7E5C0DF
S1130600843611F0893639F5F80127FF07C0608177
S11306107181828193810C5F1F4F08C06081718159
S1130620072E000C880B990B0E5F1F4F2F76722E2E
S113063097FF09C090958095709561957F4F8F4F76
S11306409F4F2068722E2AE030E0A4010E94970593
S1130650A82EA81844C0853729F42F7EB22E2AE08C
S113066030E025C0F22FF97FBF2E8F36C1F018F489
S1130670883579F0B4C0803719F0883721F0AFC0DD
S11306802F2F2061B22EB4FE0DC08B2D8460B82EA6
S113069009C024FF0AC09F2F9660B92E06C028E027
S11306A030E005C020E130E002C020E132E0F80192
S11306B0B7FE07C060817181828193810C5F1F4FF7
S11306C006C06081718180E090E00E5F1F4FA4013D
S11306D00E949705A82EA818FB2DFF777F2E76FE83
S11306E00BC0372D3E7FA51450F474FE0AC072FC73
S11306F008C0372D3E7E05C0BA2C372D03C0BA2C56
S113070001C0B52C34FF0DC0FE01EA0DF11D80813E
S1130710803311F4397E09C032FF06C0B394B39418
S113072004C0832F867809F0B39433FD13C030FFDF
S113073006C05A2CB31418F4530C5B18B32CB3141E
S113074068F4B70180E290E03C870E945F05B394AF
S11307503C85F5CFB31410F43B1801C0312C34FFA1
S113076012C0B70180E390E03C870E945F053C859E
S113077032FF17C031FD03C088E790E002C088E56E
S113078090E0B7010CC0832F867859F031FF02C086
S11307908BE201C080E237FD8DE2B70190E00E9458
S11307A05F05A51438F4B70180E390E00E945F056B
S11307B05A94F7CFAA94F401EA0DF11D8081B70190
S11307C090E00E945F05A110F5CF332009F451CECB
S11307D0B70180E290E00E945F053A94F6CFF701FA
S11307E08681978102C08FEF9FEF2C96E2E10C94F3
S11307F011060F931F93CF93DF93869F8001879FEA
S1130800100D969F100D1124C8010E941504EC01CF
S1130810009729F0A80160E070E00E944D05CE0128
S1130820DF91CF911F910F910895CF93DF93823081
S1130830910510F482E090E0E091DA00F091DB00A1
S113084020E030E0C0E0D0E0309711F140815181E8
S113085048175907C0F04817590761F482819381FA
S1130860209719F09B838A832BC09093DB0080939D
S1130870DA0026C02115310519F04217530718F480
S11308809A01BE01DF01EF010280F381E02DDCCF8C
S11308902115310509F1281B390B2430310590F459
S11308A012968D919C9113976115710521F0FB01AE
S11308B09383828304C09093DB008093DA00FD016C
S11308C0329644C0FD01E20FF31F819391932250AD
S11308D031092D933C933AC02091D8003091D9002E
S11308E0232B41F420916200309163003093D900AE
S11308F02093D800209160003091610021153105CA
S113090041F42DB73EB74091640050916500241B1B
S1130910350BE091D800F091D900E217F307A0F469
S11309202E1B3F0B2817390778F0AC014E5F5F4F41
S11309302417350748F04E0F5F1F5093D90040939A
S1130940D8008193919302C0E0E0F0E0CF01DF9101
S1130950CF9108950F931F93CF93DF93009709F4DA
S11309608CC0FC013297138212820091DA0010913C
S1130970DB000115110581F420813181820F931F61
S11309802091D8003091D9002817390779F5F093D0
S1130990D900E093D80071C0D80140E050E0AE1710
S11309A0BF0750F412962D913C911397AD01211578
S11309B0310509F1D901F3CF9D01DA013383228393
S11309C060817181860F971F8217930769F4EC0188
S11309D028813981260F371F2E5F3F4F31832083B3
S11309E08A819B8193838283452B29F4F093DB00D6
S11309F0E093DA0042C01396FC93EE931297ED0154
S1130A00499159919E01240F351FE217F30771F4A0
S1130A1080819181840F951F029611969C938E93E9
S1130A208281938113969C938E931297E0E0F0E079
S1130A30D80112968D919C911397009719F0F801A3
S1130A408C01F6CF8D919C9198012E5F3F4F820FC0
S1130A50931F2091D8003091D9002817390769F4E1
S1130A60309729F41092DB001092DA0002C013824E
S1130A7012821093D9000093D800DF91CF911F9177
S1130A800F910895FC010590615070400110D8F752
S1130A90809590958E0F9F1F0895DC0101C06D9382
S1130AA041505040E0F70895FC01615070400190BE
S1130AB00110D8F7809590958E0F9F1F08950F937E
S1130AC01F93CF93DF93FB01238121FD03C08FEF9D
S1130AD09FEF28C022FF16C04681578124813581AB
S1130AE04217530744F4A081B1819D012F5F3F4F0A
S1130AF0318320838C93268137812F5F3F4F378347
S1130B00268310C0EB01092F182F0084F185E02DF6
S1130B100995892BE1F68E819F8101969F838E83AF
S1130B20812F902FDF91CF911F910F910895FA019A
S1130B30AA27283051F1203181F1E8946F936E7F18
S1130B406E5F7F4F8F4F9F4FAF4FB1E03ED0B4E009
S1130B503CD0670F781F891F9A1FA11D680F791F4A
S1130B608A1F911DA11D6A0F711D811D911DA11D5B
S1130B7020D009F468943F912AE0269F112430196B
S1130B80305D3193DEF6CF010895462F4770405D06
S1130B904193B3E00FD0C9F7F6CF462F4F70405DB5
S1130BA04A3318F0495D31FD4052419302D0A9F710
S1130BB0EACFB4E0A6959795879577956795BA950A
S1130BC0C9F700976105710508959B01AC010A2ED0
S1130BD006945795479537952795BA95C9F7620FA7
S1130BE0731F841F951FA01D08952F923F924F924B
S1130BF05F926F927F928F929F92AF92BF92CF92A9
S1130C00DF92EF92FF920F931F93CF93DF93CDB7B1
S1130C10DEB7CA1BDB0B0FB6F894DEBF0FBECDBF29
S1130C2009942A88398848885F846E847D848C84FA
S1130C309B84AA84B984C884DF80EE80FD800C8103
S1130C401B81AA81B981CE0FD11D0FB6F894DEBFE6
S10F0C500FBECDBFED010895F894FFCF56
S1130C5C0000DC00200014001E0046756E637469ED
S1130C6C6F6E20706172616D657465727320616E54
S1130C7C642047434320666F72204156520A0D008C
S1130C8C4D696E206E756D626572206F66202564E9
S1130C9C20616E642025642069732025640A0D008C
S1130CAC4D6178206E756D626572206F66202564C7
S1130CBC20616E642025642069732025640A0D006C
S9030000FC
