S00C00006D61696E2E7372656373
S11300000C942A000C9447000C9447000C9447006D
S11300100C9447000C9447000C9447000C94470040
S11300200C9447000C9447000C9447000C94470030
S11300300C9447000C9447000C9447000C94470020
S11300400C9447000C9447000C9447000C94470010
S11300500C94470011241FBECFE5D8E0DEBFCDBF0E
S113006010E0A0E6B0E0E0EAF1E002C005900D92F5
S1130070A836B107D9F720E0A8E6B0E001C01D9288
S1130080A936B207E1F70E94C3000C94CE000C9489
S1130090000040E0CF9941E050916000409360003F
S11300A061E04627452319F04427409362000895F0
S11300B040E0C89941E0509161004093610061E0E3
S11300C04627452341F041E0409362004427409392
S11300D063004093640008955091600049B34078F0
S11300E04093600060E85627452329F04427409355
S11300F0630040936400089540E0C89941E0509142
S113010061004093610061E04627452331F040914E
S1130110620051E0452740936200089540916200D7
S1130120403061F040E25527809163009091640073
S1130130840F951F809363009093640008954FEF9C
S113014047BB08950E946C000E947C000E948E00B0
S113015090916400909598BB0895CF93DF93CDB7A9
S1130160DEB79091650080916600891728F480912C
S113017065008093680004C08091660080936800E5
S1130180DF91CF910895CF93DF93CDB7DEB70E946F
S1130190AD000E949F000E94A200FDCFF894FFCF03
S10B01A001010000001234000B
S9030000FC
