:100000000C942A000C945B000C945B000C945B0035
:100010000C945B000C945B000C945B000C945B00F4
:100020000C945B000C945B000C945B000C945B00E4
:100030000C945B000C945B000C945B000C945B00D4
:100040000C945B000C945B000C945B000C945B00C4
:100050000C945B0011241FBECFE5D8E0DEBFCDBFFE
:1000600010E0A0E6B0E0ECE9FDE002C005900D92E2
:10007000AE3BB107D9F720E0AEEBB0E001C01D9276
:10008000A03DB207E1F708E212E00F2EF6E1EF2EF5
:10009000F2E0FF2EF02D40E052E16AE770E080E8E8
:1000A00095E20E94C201B701C8010E9466020E9447
:1000B0007D000C94CC060C940000CF93DF9300D00D
:1000C000CDB7DEB79A8389831F82188619861A8670
:1000D0001B861C861D861E8689819A8128E2FE0168
:1000E0003796DC0101900D922A95E1F789819A817A
:1000F0000F900F90DF91CF910895CF93DF93CDB7FD
:10010000DEB7AA970FB6F894DEBF0FBECDBF9E0133
:100110002D5F3F4F8DB79EB788970FB6F8949EBF5F
:100120000FBE8DBF8DB79EB7019648E2E2E7F0E0C3
:10013000DC0101900D924A95E1F7C9010E945D0032
:10014000EDB7FEB7B8960FB6F894DEBF0FBECDBFC1
:10015000209168003091690080916600909167005D
:10016000B9010E944F019093BF008093BE0020917F
:100170006E0030916F00409170005091710080913D
:100180006A0090916B00A0916C00B0916D00BC0171
:10019000CD010E946601DC01CB018093C1009093E8
:1001A000C200A093C300B093C4004091BE00509120
:1001B000BF002091680030916900809166009091A5
:1001C0006700652F6F934F93432F4F932F93292FE2
:1001D0002F938F938AE990E0892F8F938AE990E09B
:1001E0008F930E94B1028DB79EB708960FB6F89410
:1001F000DEBF0FBECDBF87E390E02FEFFC01208371
:1002000088E390E09A83898389819A8120E3FC01C5
:10021000208389819A8122E3FC01208389819A814C
:1002200020E3FC01208389819A81FC018081282FB1
:10023000209589819A81FC01208385E00E948F01AD
:100240008093C50085E00E94A7018093C000809143
:10025000C000282F30E08091C500882F90E0432F08
:100260004F932F93292F2F938F9383EA90E0892F19
:100270008F9383EA90E08F930E94B1020F900F90CA
:100280000F900F900F900F9080E090E0AA960FB61D
:10029000F894DEBF0FBECDBFDF91CF910895CF930D
:1002A000DF9300D000D0CDB7DEB79A8389837C83FB
:1002B0006B8329813A818B819C81820F931F0F90E0
:1002C0000F900F900F90DF91CF910895CF93DF9310
:1002D000CDB7DEB728970FB6F894DEBF0FBECDBFFF
:1002E00069837A838B839C832D833E834F835887D6
:1002F00029813A814B815C818D819E81AF81B88556
:10030000820F931FA41FB51FBC01CD0128960FB605
:10031000F894DEBF0FBECDBFDF91CF910895CF938C
:10032000DF931F92CDB7DEB789838981882311F4CB
:1003300081E009C0898181500E948F01982F8981B5
:10034000989F802D11240F90DF91CF910895CF9326
:10035000DF9300D0CDB7DEB78A8381E0898309C0FF
:1003600099818A81989F802D112489838A81815067
:100370008A838A818823A1F789810F900F90DF916A
:10038000CF910895CF93DF93CDB7DEB72C970FB6FB
:10039000F894DEBF0FBECDBF9C838B834D835E83FD
:1003A0006F8378878B819C81CC01A0E0B0E0880FBF
:1003B000991FAA1FBB1F880F991FAA1FBB1F880F59
:1003C000991FAA1FBB1F880F991FAA1FBB1F9C0143
:1003D000AD018D819E81AF81B885BC01CD010E94A8
:1003E0004402DA01C90101979A83898380E490E08D
:1003F00029813A81232F3327FC01208389E290E071
:100400002981FC0120838AE290E028E1FC0120831D
:1004100080E490E02EE8FC0120832C960FB6F8943F
:10042000DEBF0FBECDBFDF91CF910895CF93DF9395
:10043000CDB7DEB700008BE290E0FC01808188231D
:10044000D4F78CE290E0FC018081DF91CF91089598
:10045000CF93DF931F92CDB7DEB7898300008BE285
:1004600090E0FC018081882F90E080729927892B91
:10047000B1F38CE290E02981FC01208381E090E0DF
:100480000F90DF91CF910895A1E21A2EAA1BBB1BFA
:10049000FD010DC0AA1FBB1FEE1FFF1FA217B30750
:1004A000E407F50720F0A21BB30BE40BF50B661F66
:1004B000771F881F991F1A9469F76095709580952A
:1004C00090959B01AC01BD01CF0108950F931F933F
:1004D000CF93DF93009731F46115710519F480E033
:1004E00090E03AC08B01EC016EE070E081E090E0BA
:1004F0000E949904FC01892B91F380E88383011504
:10050000110571F01387028781E883838091C6000B
:100510009091C700892B21F4F093C700E093C600A7
:100520002097C9F0D187C0878381826083838091BF
:10053000C8009091C900892B71F4F093C900E09331
:10054000C8008091CA009091CB00892B21F4F093D0
:10055000CB00E093CA00CF01DF91CF911F910F91A3
:100560000895A0E0B0E0E7EBF2E00C94A506AE0140
:100570004B5F5F4FFA0161917191AF018091C800AB
:100580009091C9000E94C702E2E00C94C106ACE061
:10059000B0E0EDECF2E00C9495067C016B018A0171
:1005A000FC0117821682838181FFBDC1CE010196B5
:1005B0004C01F7019381F60193FD859193FF8191A1
:1005C0006F01882309F4ABC1853239F493FD85911D
:1005D00093FF81916F01853229F4B70190E00E9469
:1005E000FF05E7CF512C312C20E02032A0F48B32D4
:1005F00069F030F4803259F0833269F420612CC004
:100600008D3239F0803339F4216026C022602460B5
:1006100023C0286021C027FD27C030ED380F3A30B5
:1006200078F426FF06C0FAE05F9E300D1124532EA9
:1006300013C08AE0389E300D1124332E20620CC086
:100640008E3221F426FD6BC1206406C08C3611F475
:10065000206802C0883641F4F60193FD859193FF2E
:1006600081916F018111C1CF982F9F7D9554933057
:1006700028F40C5F1F4FFFE3F9830DC0833631F080
:10068000833771F0833509F05BC022C0F8018081A7
:1006900089830E5F1F4F44244394512C540115C08D
:1006A0003801F2E06F0E711CF801A080B18026FFC6
:1006B00003C0652D70E002C06FEF7FEFC5012C878E
:1006C0000E94F4052C0183012C852F77222E17C060
:1006D0003801F2E06F0E711CF801A080B18026FF96
:1006E00003C0652D70E002C06FEF7FEFC5012C875E
:1006F0000E94E2052C012C852068222E830123FC18
:100700001BC0832D90E048165906B0F4B70180E273
:1007100090E00E94FF053A94F4CFF50127FC859103
:1007200027FE81915F01B70190E00E94FF05311023
:100730003A94F1E04F1A51084114510471F7E5C0A1
:10074000843611F0893639F5F80127FF07C060813A
:100750007181828193810C5F1F4F08C0608171811C
:10076000072E000C880B990B0E5F1F4F2F76722EF1
:1007700097FF09C090958095709561957F4F8F4F39
:100780009F4F2068722E2AE030E0A4010E943706B5
:10079000A82EA81844C0853729F42F7EB22E2AE04F
:1007A00030E025C0F22FF97FBF2E8F36C1F018F44C
:1007B000883579F0B4C0803719F0883721F0AFC0A0
:1007C0002F2F2061B22EB4FE0DC08B2D8460B82E69
:1007D00009C024FF0AC09F2F9660B92E06C028E0EA
:1007E00030E005C020E130E002C020E132E0F80155
:1007F000B7FE07C060817181828193810C5F1F4FBA
:1008000006C06081718180E090E00E5F1F4FA401FF
:100810000E943706A82EA818FB2DFF777F2E76FEA4
:100820000BC0372D3E7FA51450F474FE0AC072FC35
:1008300008C0372D3E7E05C0BA2C372D03C0BA2C18
:1008400001C0B52C34FF0DC0FE01EA0DF11D808101
:10085000803311F4397E09C032FF06C0B394B394DB
:1008600004C0832F867809F0B39433FD13C030FFA2
:1008700006C05A2CB31418F4530C5B18B32CB314E1
:1008800068F4B70180E290E03C870E94FF05B394D2
:100890003C85F5CFB31410F43B1801C0312C34FF64
:1008A00012C0B70180E390E03C870E94FF053C85C1
:1008B00032FF17C031FD03C088E790E002C088E531
:1008C00090E0B7010CC0832F867859F031FF02C049
:1008D0008BE201C080E237FD8DE2B70190E00E941B
:1008E000FF05A51438F4B70180E390E00E94FF05EE
:1008F0005A94F7CFAA94F401EA0DF11D8081B70153
:1009000090E00E94FF05A110F5CF332009F451CEED
:10091000B70180E290E00E94FF053A94F6CFF7011C
:100920008681978102C08FEF9FEF2C96E2E10C94B5
:10093000B1060F931F93CF93DF93869F8001879F0C
:10094000100D969F100D1124C8010E94B504EC01F2
:10095000009729F0A80160E070E00E94ED05CE014B
:10096000DF91CF911F910F910895CF93DF93823044
:10097000910510F482E090E0E091CE00F091CF007C
:1009800020E030E0C0E0D0E0309711F140815181AB
:1009900048175907C0F04817590761F482819381BD
:1009A000209719F09B838A832BC09093CF0080936C
:1009B000CE0026C02115310519F04217530718F44F
:1009C0009A01BE01DF01EF010280F381E02DDCCF4F
:1009D0002115310509F1281B390B2430310590F41C
:1009E00012968D919C9113976115710521F0FB0171
:1009F0009383828304C09093CF008093CE00FD0147
:100A0000329644C0FD01E20FF31F8193919322506F
:100A100031092D933C933AC02091CC003091CD0008
:100A2000232B41F420916200309163003093CD007C
:100A30002093CC0020916000309161002115310598
:100A400041F42DB73EB74091640050916500241BDE
:100A5000350BE091CC00F091CD00E217F307A0F444
:100A60002E1B3F0B2817390778F0AC014E5F5F4F04
:100A70002417350748F04E0F5F1F5093CD00409369
:100A8000CC008193919302C0E0E0F0E0CF01DF91D0
:100A9000CF9108950F931F93CF93DF93009709F49D
:100AA0008CC0FC013297138212820091CE0010910B
:100AB000CF000115110581F420813181820F931F30
:100AC0002091CC003091CD002817390779F5F093AB
:100AD000CD00E093CC0071C0D80140E050E0AE17EB
:100AE000BF0750F412962D913C911397AD0121153B
:100AF000310509F1D901F3CF9D01DA013383228356
:100B000060817181860F971F8217930769F4EC014A
:100B100028813981260F371F2E5F3F4F3183208375
:100B20008A819B8193838283452B29F4F093CF00A4
:100B3000E093CE0042C01396FC93EE931297ED0122
:100B4000499159919E01240F351FE217F30771F463
:100B500080819181840F951F029611969C938E93AC
:100B60008281938113969C938E931297E0E0F0E03C
:100B7000D80112968D919C911397009719F0F80166
:100B80008C01F6CF8D919C9198012E5F3F4F820F83
:100B9000931F2091CC003091CD002817390769F4BC
:100BA000309729F41092CF001092CE0002C0138229
:100BB00012821093CD000093CC00DF91CF911F9152
:100BC0000F910895FC010590615070400110D8F715
:100BD000809590958E0F9F1F0895DC0101C06D9345
:100BE00041505040E0F70895FC0161507040019081
:100BF0000110D8F7809590958E0F9F1F08950F9341
:100C00001F93CF93DF93FB01238121FD03C08FEF5F
:100C10009FEF28C022FF16C046815781248135816D
:100C20004217530744F4A081B1819D012F5F3F4FCC
:100C3000318320838C93268137812F5F3F4F378309
:100C4000268310C0EB01092F182F0084F185E02DB9
:100C50000995892BE1F68E819F8101969F838E8372
:100C6000812F902FDF91CF911F910F910895FA015D
:100C7000AA27283051F1203181F1E8946F936E7FDB
:100C80006E5F7F4F8F4F9F4FAF4FB1E03ED0B4E0CC
:100C90003CD0670F781F891F9A1FA11D680F791F0D
:100CA0008A1F911DA11D6A0F711D811D911DA11D1E
:100CB00020D009F468943F912AE0269F112430192E
:100CC000305D3193DEF6CF010895462F4770405DC9
:100CD0004193B3E00FD0C9F7F6CF462F4F70405D78
:100CE0004A3318F0495D31FD4052419302D0A9F7D3
:100CF000EACFB4E0A6959795879577956795BA95CD
:100D0000C9F700976105710508959B01AC010A2E92
:100D100006945795479537952795BA95C9F7620F69
:100D2000731F841F951FA01D08952F923F924F920D
:100D30005F926F927F928F929F92AF92BF92CF926B
:100D4000DF92EF92FF920F931F93CF93DF93CDB774
:100D5000DEB7CA1BDB0B0FB6F894DEBF0FBECDBFEC
:100D600009942A88398848885F846E847D848C84BD
:100D70009B84AA84B984C884DF80EE80FD800C81C6
:100D80001B81AA81B981CE0FD11D0FB6F894DEBFA9
:0C0D90000FBECDBFED010895F894FFCF19
:100D9C000000D000200034126587785634122143AD
:100DAC0065871716151413121110272625242322D4
:100DBC0021202726252423222120272625242322EF
:100DCC002120000000000000000025642B25643D5C
:100DDC00256400524661632835293D25642C204941
:0E0DEC004661632835293D25640A0D29000063
:00000001FF
