S01300006176725F73696F5F6973722E7372656371
S11300000C9442000C945F000C945F000C945F000D
S11300100C945F000C945F000C945F000C945F00E0
S11300200C945F000C945F000C945F000C945F00D0
S11300300C945F000C9440010C9411010C945F002B
S11300400C945F000C945F000C945F000C945F00B0
S11300500C945F00444452410050410044445242D5
S1130060005752005244005352005244414C4C0039
S1130070575256454354006364696E6F70737578C4
S1130080585B000011241FBECFE5D8E0DEBFCDBF12
S113009011E0A0E6B0E0E2EAFAE102C005900D92B8
S11300A0AE33B107D9F722E0AEE3B1E001C01D924F
S11300B0A13FB207E1F70E94F2020C944F0D0C9499
S11300C00000FC01108211820895FC0140818181AD
S11300D021E030E0481711F020E030E0C901089534
S11300E0FC012081818130E0281B310937FF02C0E7
S11300F020583F4F41E050E02F37310511F040E0E8
S113010050E0CA0108950F931F93CF93DF931F927A
S1130110CDB7DEB78C01F89469830E9470006981C1
S1130120892B51F4F8018081E80FF11D6283F801F5
S113013080818F5F8F77808378940F90DF91CF9148
S11301401F910F9108950F931F93CF93DF931F92E5
S1130150CDB7DEB78C0169830E9470006981892B59
S113016051F4F8018081E80FF11D6283F801808168
S11301708F5F8F7780830F90DF91CF911F910F91C5
S11301800895FC01F89490818181981761F0818130
S1130190DF01A80FB11D12962C9130E081818F5F91
S11301A08F77818302C02FEF3FEF7894C9010895C0
S11301B0FC0190818181981761F08181DF01A80F92
S11301C0B11D12962C9130E081818F5F8F778183EE
S11301D002C02FEF3FEFC9010895CF93DF9300D002
S11301E0CDB7DEB7FC0120812A8321810AC0298191
S11301F0FC01E20FF11D2281621759F029812F5F62
S11302002F7729833A8129813213F1CF20E030E01E
S113021002C021E030E0C9010F900F90DF91CF912F
S113022008951F920F920FB60F9211242F933F93AC
S11302304F935F936F937F938F939F93AF93BF93EA
S1130240EF93FF9384EC91E00E946500892B11F0F9
S1130250559805C084EC91E00E94D8008CB9FF91B8
S1130260EF91BF91AF919F918F917F916F915F912A
S11302704F913F912F910F900FBE0F901F901895A3
S11302801F920F920FB60F9211242F933F934F9307
S11302905F936F937F938F939F93AF93BF93EF93EA
S11302A0FF936CB182E491E00E94A300FF91EF916F
S11302B0BF91AF919F918F917F916F915F914F917A
S11302C03F912F910F900FBE0F901F9018959C0196
S11302D0CB01BA0140E050E0E4E0220F331F441F99
S11302E0551FEA95D1F70E94B9062150310930BD56
S11302F029B988E18AB98EE880BD82E491E00E9440
S1130300610084EC91E00E9461005598579A089529
S113031082E491E00E946500892BD1F782E491E0A8
S11303200E94C1000895CF92DF92EF92FF920F9343
S11303301F93CF93DF9300D01F92CDB7DEB78C010C
S11303406B011A821982E980FA80E00EF11E82E4C0
S113035091E04B830E948801F701808389819A810F
S113036001969A83898389819A814B818C159D0595
S113037044F4E981FA81E00FF11F319780818413FD
S1130380E2CFE981FA81E00FF11F10820F900F9004
S11303900F90DF91CF911F910F91FF90EF90DF901D
S11303A0CF900895CF93DF931F92CDB7DEB7682F18
S11303B084EC91E069830E9470006981892BC1F704
S11303C084EC91E00E948300559A0F90DF91CF91C5
S11303D00895CF93DF93EC0102C00E94D20189916A
S11303E08111FBCFDF91CF910895682F82E491E0D2
S11303F00C94ED0008C0322F31563A3118F42052D3
S1130400FC0120830196FC0120812111F4CF089581
S1130410CF93DF9360916000709161004BEE52E0E6
S113042080E090E00E94ED06EC019093F00280934E
S1130430EF020097C1F16EE670E00E94E4060097B7
S1130440E9F48AB38093ED021092EE021F928F9327
S113045080E790E09F938F938BE692E09F938F9336
S11304600E9414070F900F900F900F900F900F9011
S11304708BE692E0DF91CF910C94E9018DEE92E04E
S11304809F938F9389E790E09F938F93DF93CF930C
S11304900E9436078091ED028ABB0F900F900F9057
S11304A00F900F900F90DF91CF910895CF93DF932A
S11304B060916000709161004BEE52E080E090E04A
S11304C00E94ED06EC019093F0028093EF020097F6
S11304D0C1F16EE670E00E94E4060097E9F487B388
S11304E08093ED021092EE021F928F938CE790E0BE
S11304F09F938F938BE692E09F938F930E941407B0
S11305000F900F900F900F900F900F908BE692E04A
S1130510DF91CF910C94E9018DEE92E09F938F933C
S113052089E790E09F938F93DF93CF930E943607E0
S11305308091ED0287BB0F900F900F900F900F905A
S11305400F90DF91CF910895CF93DF936091600076
S1130550709161004BEE52E080E090E00E94ED0665
S1130560EC019093F0028093EF020097C1F16EE6E4
S113057070E00E94E4060097E9F489B38093ED02E9
S11305801092EE021F928F9385E890E09F938F93D1
S11305908BE692E09F938F930E9414070F900F9025
S11305A00F900F900F900F908BE692E0DF91CF9118
S11305B00C94E9018DEE92E09F938F9389E790E08C
S11305C09F938F93DF93CF930E9436078091ED0220
S11305D08BBB0F900F900F900F900F900F90DF91A7
S11305E0CF9108950E940C050E94340540E052E129
S11305F06AE770E080E895E20E9467018CE890E089
S11306000E94E9017894CBE6D2E08EE3A82E81E043
S1130610B82E0EE910E09AED292E90E0392E20E450
S1130620C22E21E0D22E3BEC432E30E0532E43ED7C
S1130630642E40E0742E51EC852E50E0952E8AE015
S11306400E94F501892BD9F34AE06FE770E08BE64D
S113065092E00E94930160916000709161004BEE02
S113066052E08BE692E00E94ED069093F0028093B4
S1130670EF020E94FA01E090EF02F090F002E11420
S1130680F104E9F264E570E0C7010E94DB06892BFE
S113069019F40E940802D3CF69E570E0C7010E94F3
S11306A0DB06892B19F40E94A402C9CF6CE570E023
S11306B0C7010E94DB06892B19F40E945602BFCFA2
S11306C061E670E0C7010E94DB06892B09F065C072
S11306D060916000709161004BEE52E080E090E028
S11306E00E94ED069093F0028093EF02009771F060
S11306F0DF92CF921F930F939F938F930E9436079D
S11307000F900F900F900F900F900F9060916000DA
S1130710709161004BEE52E080E090E00E94ED06A3
S11307209093F0028093EF02009771F0BF92AF9222
S11307301F930F939F938F930E9436070F900F90F0
S11307400F900F900F900F9060913E0180914001A7
S1130750909141010E94890580913F018F9380917E
S11307603E018F93809141018F93809140018F933B
S113077081EA90E09F938F93DF93CF930E941407B5
S11307808BE692E00E94E9018DB79EB708960FB6FA
S1130790F8949EBF0FBE8DBF52CF64E670E0C701D0
S11307A00E94DB06892B09F045C0609160007091BE
S11307B061004BEE52E080E090E00E94ED069093E1
S11307C0F0028093EF02009771F0DF92CF921F93B3
S11307D00F939F938F930E9436070F900F900F9063
S11307E00F900F900F9080914001909141010E94D1
S11307F0430680933E0110923F011F928F93809194
S113080041018F93809140018F9381EB90E09F93FE
S11308108F93DF93CF930E9414078BE692E00E949C
S1130820E9018DB79EB708960FB6F8949EBF0FBE28
S11308308DBF05CF67E670E0C7010E94DB06892BF8
S113084049F560916000709161004BEE52E080E0E8
S113085090E00E94ED069093F0028093EF020097DF
S113086071F0DF92CF921F930F939F938F930E9407
S113087036070F900F900F900F900F900F900E94DB
S1130880880680933E0110923F011F928F939F929E
S11308908F92AEC06AE670E0C7010E94DB06892B26
S11308A0F1F5E12CF12CC7018F719927892BB1F453
S11308B08AEE90E00E94E901FF92EF925F924F92DC
S11308C0DF93CF930E9414078BE692E00E94E90124
S11308D00F900F900F900F900F900F90C7010E94F0
S11308E0430680933E0110923F011F928F937F92A3
S11308F06F92DF93CF930E9414078BE692E00E94DD
S1130900E9019FEFE91AF90A0F900F900F900F90E9
S11309100F900F90E11484E0F80629F690CE60E77A
S113092070E0C7010E94DB06892B09F070C060915A
S11309306000709161004BEE52E080E090E00E9414
S1130940ED069093F0028093EF02009771F0DF922E
S1130950CF921F930F939F938F930E9436070F900C
S11309600F900F900F900F900F901092460260918D
S11309706000709161004BEE52E080E090E00E94D4
S1130980ED068093EF029093F002BF92AF921F9313
S11309900F939F938F930E9436070F900F900F90A1
S11309A00F900F900F90019761F480914602E82F09
S11309B0F0E0E95BFD4F90913E0190838F5F80935F
S11309C046028091EF029091F002892B81F64091CA
S11309D0460250E067E472E0809140019091410149
S11309E00E94D405809146021F928F933F922F92CA
S11309F0DF93CF930E9414078BE692E00E94E901F3
S1130A000F900F900F900F900F900F9018CE8DEEC7
S1130A1090E00E94E90113CED09AD19AD69AD79841
S1130A20D898D998DE9A089580FDDE9A80FFDE98E2
S1130A3082E08A95F1F700C00895D99882E08A95FA
S1130A40F1F700C0D99A82E08A95F1F700C00895C1
S1130A50D99A82E08A95F1F700C00895D99882E086
S1130A608A95F1F700C008951F93CF93DF93D09A2E
S1130A7080E090E00E941405C8E0D0E016E0812FE9
S1130A80881F8827881F80FDD89A80FFD898110F67
S1130A900E941D05219799F781E090E0DF91CF91A5
S1130AA01F910C941405FF920F931F93CF93DF9320
S1130AB0EC01D09A0E94340580E090E00E94140575
S1130AC008E010E092E0F92E8F2D881F8827881FF8
S1130AD080FDD89A80FFD898FF0C0E941D05015014
S1130AE0110991F700E110E08D2F881F8827881FD6
S1130AF080FDD89A80FFD898CC0FDD1F0E941D0579
S1130B000150110989F7DF91CF911F910F91FF9047
S1130B100895EF92FF920F931F93CF93DF93EC010D
S1130B20F62ED09A0E94340580E090E00E941405CD
S1130B3008E010E032E0E32E8E2D881F8827881FFE
S1130B4080FDD89A80FFD898EE0C0E941D050150B4
S1130B50110991F700E110E08D2F881F8827881F65
S1130B6080FDD89A80FFD898CC0FDD1F0E941D0508
S1130B700150110989F7C8E0D0E08F2D881F88271C
S1130B80881F80FDD89A80FFD898FF0C0E941D050D
S1130B90219799F781E090E0DF91CF911F910F9118
S1130BA0FF90EF900C9414054F925F927F928F9276
S1130BB09F92AF92BF92CF92DF92EF92FF920F93E8
S1130BC01F93CF93DF9300D0CDB7DEB78C015A01CA
S1130BD0D09A69837A830E943405C8010E94530520
S1130BE00F5F1F4F6981462E7A81572E72012CC0E8
S1130BF0F70171907F01D09A48E0C42ED12C872D43
S1130C00881F8827881F80FDD89A80FFD898770C82
S1130C100E941D05F1E0CF1AD10889F78FE08822E0
S1130C2099249FE08916910469F481E090E00E9480
S1130C301405EFE0F7E23197F1F700C00000C801B6
S1130C400E9453050F5F1F4F4801F1E08F1A91086E
S1130C50C701841995098A159B0554F281E090E037
S1130C600F900F90DF91CF911F910F91FF90EF9014
S1130C70DF90CF90BF90AF909F908F907F905F90C8
S1130C804F900C941405FF920F931F93CF93DF930F
S1130C90EC01D09A80E090E00E94140508E010E096
S1130CA063E0F62E8F2D881F8827881F80FDD89A31
S1130CB080FFD898FF0C0E941D050150110991F77F
S1130CC000E110E08D2F881F8827881F80FDD89AA7
S1130CD080FFD898CC0FDD1F0E941D05015011091B
S1130CE089F7C8E0D0E010E00E942E05110FCF99DB
S1130CF011600E9428052197B9F781E090E00E94D5
S1130D001405812FDF91CF911F910F91FF900895CA
S1130D101F93CF93DF93D09A80E090E00E94140554
S1130D20C8E0D0E015E0812F881F8827881F80FD48
S1130D30D89A80FFD898110F0E941D05219799F722
S1130D40C8E0D0E010E00E942E05110F82E08A95E1
S1130D50F1F700C0CF9911600E942805219799F7F7
S1130D6081E090E00E941405812FDF91CF911F91C3
S1130D700895A1E21A2EAA1BBB1BFD010DC0AA1FD8
S1130D80BB1FEE1FFF1FA217B307E407F50720F0F0
S1130D90A21BB30BE40BF50B661F771F881F991F6B
S1130DA01A9469F760957095809590959B01AC01B4
S1130DB0BD01CF010895FB01DC018D9105908019DF
S1130DC00110D9F3990B0895FB01DC018D91019079
S1130DD080190110D9F3990B0895FA01A191B081FA
S1130DE0009719F41097E1F0CD01DC01CD010D90CD
S1130DF0002011F4C00113C0FB012191222319F03A
S1130E002015D9F7F3CFFB012191201519F41E9277
S1130E10119606C02223C1F70D900020A1F7D0013E
S1130E20FA01A193B0830895AEE0B0E0EAE1F7E0FF
S1130E300C94260D0D891E8986E08C831A83098300
S1130E408FEF9FE79E838D83CE014996AC016F8916
S1130E50788DCE0101960E944F07EF81F885E00F4F
S1130E60F11F10822E96E4E00C94420DAEE0B0E047
S1130E70ECE3F7E00C94280D85E08C838B899C8946
S1130E809A838983CE014796AC016D897E89CE0110
S1130E9001960E94D90A2E96E2E00C94440DACE02F
S1130EA0B0E0E5E5F7E00C94180D7C016B018A01D4
S1130EB0FC0117821682838181FFC6C18824839432
S1130EC0912C8C0E9D1EF7019381F60193FD859163
S1130ED093FF81916F01882309F4B2C1853239F4FB
S1130EE093FD859193FF81916F01853229F4B701B8
S1130EF090E00E94700CE7CF512C312C20E020327E
S1130F00A8F48B3261F028F4803251F0833271F40A
S1130F100BC08D3239F0803349F4216028C022603F
S1130F20246025C0286023C0206121C027FD27C07C
S1130F30382F30533A3078F426FF06C0FAE05F9E2B
S1130F40300D1124532E13C08AE0389E300D112425
S1130F50332E20620CC08E3221F426FD71C1206430
S1130F6006C08C3611F4206802C0883641F4F601BC
S1130F7093FD859193FF81916F018111C0CF982FCB
S1130F809554933018F09052933028F40C5F1F4F0F
S1130F90FFE3F9830DC0833631F0833771F0833575
S1130FA009F05EC023C0F801808189830E5F1F4F62
S1130FB044244394512C540115C03801F2E06F0EBF
S1130FC0711CF801A080B18026FF03C0652D70E07C
S1130FD002C06FEF7FEFC5012C870E94250C2C0106
S1130FE083012C856FE7262E222218C03801F2E0F7
S1130FF06F0E711CF801A080B18026FF03C0652D1F
S113100070E002C06FEF7FEFC5012C870E941A0CBD
S11310102C012C8550E8252E222A830123FC1CC098
S113102006C0B70180E290E00E94700C3A94832DD0
S113103090E048165906A8F30FC0F50127FC8591E6
S113104027FE81915F01B70190E00E94700C31107E
S11310503A94F1E04F1A51084114510471F7EDC06C
S1131060843611F0893641F5F80127FF07C0608105
S11310707181828193810C5F1F4F08C060817181EF
S1131080882777FD8095982F0E5F1F4F4FE6B42E6B
S1131090B22297FF09C090958095709561957F4F16
S11310A08F4F9F4FF0E8BF2A2AE030E0A4010E944E
S11310B0B70CA82EA81843C0853731F43FEEB32EE1
S11310C0B2222AE030E024C099EFB92EB2228F3642
S11310D0B9F020F4883509F0B3C00DC0803721F091
S11310E0883709F0ADC002C020E1B22AB4FE0BC0BB
S11310F084E0B82A08C024FF09C0E6E0BE2A06C07E
S113110028E030E005C020E130E002C020E132E018
S1131110F801B7FE07C060817181828193810C5F01
S11311201F4F06C06081718180E090E00E5F1F4F09
S1131130A4010E94B70CA82EA818FFE7BF22B6FE90
S11311400BC02B2D2E7FA51450F4B4FE0AC0B2FCA4
S113115008C02B2D2E7E05C07A2C2B2D03C07A2C93
S113116001C0752C24FF0DC0FE01EA0DF11D808124
S1131170803311F4297E09C022FF06C0739473944E
S113118004C0822F867809F0739423FD14C020FFD5
S11311900FC05A2C731460F4530C5718732C08C0E6
S11311A0B70180E290E02C870E94700C73942C8528
S11311B07314B0F304C0731410F4371801C0312C45
S11311C024FF12C0B70180E390E02C870E94700CCA
S11311D02C8522FF1EC021FF03C088E590E002C0D9
S11311E088E790E0B7010CC0822F867891F021FD4A
S11311F002C080E201C08BE227FD8DE2B70190E0DE
S11312000E94700C06C0B70180E390E00E94700C4D
S11312105A94A514C0F3AA94F401EA0DF11DB70180
S1131220808190E00E94700CA110F5CF06C0B70138
S113123080E290E00E94700C3A943110F8CF43CED3
S1131240F7012681378102C02FEF3FEFC9012C96A9
S1131250E2E10C94340D20FD09C0FC0123FD05C01E
S113126022FF02C073836283518340830895CF9227
S1131270DF92EF92FF920F931F9344FD10C046FD3F
S113128010C0DB01FC01AA0FBB1FEE1FFF1F10944F
S1131290D1F76A0F7B1F8E1F9F1F31E003C033E01D
S11312A001C034E0660F771F881F991F3150D1F7B2
S11312B06B017C01C20ED11CE11CF11C970186015B
S11312C0B601C9011F910F91FF90EF90DF90CF906D
S11312D008950F931F93CF93DF938C01C8010E944D
S11312E0300CEC0197FD08C00E94070C892BB1F764
S11312F0B801CE010E949C0CCE01DF91CF911F91C9
S11313000F9108958F929F92AF92CF92DF92EF92B6
S1131310FF920F931F93CF93DF93EC01A62E4A0104
S1131320022F0E94300CAC0155274B32510521F09D
S11313304D32510551F40068AA9411F480E063C061
S1131340CE010E94300C97FDF9CF102F1D7F302F56
S11313503073E1F48033D1F4AA9409F440C0CE018F
S11313600E94300C97FD3BC0883711F0883549F452
S11313701264AA94A1F1CE010E94300C97FF06C01A
S11313802EC006FF02C0126001C01261C12CD12C14
S11313907601282F2053283080F014FF04C0BE01AA
S11313A00E949C0C19C02A3040F016FFF8CF2F7D04
S11313B0322F3151363098F72750412FC701B601EB
S11313C00E9437096B017C011260AA9459F0CE0186
S11313D00E94300C97FFDDCF11FD04C0AFCFC12CAC
S11313E0D12C760117FF08C0F094E094D094C094F7
S11313F0C11CD11CE11CF11C212FB701A601C401A1
S11314000E942B0981E0DF91CF911F910F91FF90F2
S1131410EF90DF90CF90AF909F908F9008956F9250
S11314207F929F92AF92BF92CF92DF92EF92FF9200
S11314300F931F93CF93DF93CDB7DEB7A1970FB66A
S1131440F894DEBF0FBECDBF6C017A018901FE01A5
S1131450319680E2DF011D928A95E9F7D601139651
S11314609C9020E030E0A12CA0E0B12CCF0141E021
S113147050E0F80193FC759193FE71918F01711105
S113148003C000E010E080C07E3519F42115310559
S113149059F1EB2DF0E0E217F3073CF47D3569F1E7
S11314A07D3219F4AA2319F103C0A11101C0A72E9A
S11314B0E72FE695E695E6953C016E0E711CF30167
S11314C0A72FA7703A0102C0660C771CAA95E2F711
S11314D0D301B081BA2BB0837A1559F07A1510F480
S11314E07F5FE6CF7150E4CFBB24B39403C0A1E087
S11314F001C0A0E02F5F3F4FBCCFAA2319F08E811B
S113150080628E83B11003C0BB24B3940BC0FE0170
S11315103196CE018196208120952193E817F90711
S1131520D1F7F2CFC60169A30E94300C69A197FDDF
S113153024C0282F269526952695E1E0F0E0EC0FAF
S1131540FD1FE20FF11D208130E0AC0147705527EB
S113155002C0359527954A95E2F720FD04C0B601EF
S11315600E949C0C0AC0E114F10419F0D7018D9378
S11315707D016150B12CB1F602C0B11082CFE114EB
S1131580F10411F0F7011082C801A1960FB6F89486
S1131590DEBF0FBECDBFDF91CF911F910F91FF90A2
S11315A0EF90DF90CF90BF90AF909F907F906F901F
S11315B008954F925F927F928F929F92AF92BF92C3
S11315C0CF92DF92EF92FF920F931F93CF93DF930B
S11315D01F92CDB7DEB78C012B017A01FC01178273
S11315E01682A12CF0C08C2D90E00E94070C892B50
S11315F021F0C8010E946909E6C0F5E2CF120AC0D1
S1131600F201D3FC3591D3FE31912F01353271F4BF
S113161055E2C52EC8010E94300C97FDDFC0C816E4
S113162009F4D1C0B8010E949C0CDAC03A3241F4EA
S1131630D3FC3591D3FE31912F01BB24B39401C067
S1131640B12C712C10C0F2E0BF2A672D70E080E04D
S113165090E040E20E943709762EF201D3FC3591E6
S1131660D3FE31912F01232F20532A3060F3B1FE92
S113167003C0711003C0B4C077247A94383619F0CB
S11316803C3699F40AC0F201D3FC3591D3FE319172
S11316902F01383651F4F8E0BF2A84E0B82AF20169
S11316A0D3FC3591D3FE31912F01332309F498C033
S11316B0632F70E087E790E039830E940F0C398133
S11316C0892B09F48DC0B0FC07C0F701C080D1801C
S11316D082E0E80EF11C02C0C12CD12C3E3651F43C
S11316E0F8014681578160E070E02B2DC6010E940D
S11316F02B0969C0333691F4B1FC02C0772473948A
S1131700C8010E94300C97FD69C0C114D10419F0BE
S1131710F60181936F017A9499F753C03B3559F4DC
S11317209201A601672DC8010E940F0A2C0100979F
S113173009F047C041C0C80139830E946909398151
S113174097FD4CC03F3659F128F4343629F1393627
S113175049F52AC0333719F0353721F51DC0C801C2
S11317600E94300C4C0197FD11C00E94070C892B7C
S113177029F0B801C4010E949C0C08C0C114D10412
S113178019F0F60181926F017A9449F7C114D104DA
S1131790C1F0F601108215C0F0E2BF2A05C080E155
S11317A0B82A02C090E4B92A2B2DA601672DC801DE
S11317B00E948209811105C0F8018381807371F44C
S11317C00FC0B0FEA394F801D380F201D3FCC590FE
S11317D0D3FEC1902F01C11006CF02C0AA2019F078
S11317E02A2D30E002C02FEF3FEFC9010F90DF91A7
S11317F0CF911F910F91FF90EF90DF90CF90BF900A
S1131800AF909F908F907F905F904F90089591112B
S11318100CC1803219F089508550D0F70895FC012D
S11318200590061621F00020D9F7C00108953197DC
S1131830CF010895FC010590615070400110D8F764
S1131840809590958E0F9F1F0895FC016150704004
S113185001900110D8F7809590958E0F9F1F0895E1
S1131860CF93DF93EC013B8130FF34C036FF0AC0D5
S11318703F7B3B838E819F8101969F838E832A8148
S113188030E02AC032FF0FC0E881F98180819927B6
S113189087FD9095009719F430623B831BC0319605
S11318A0F983E8830EC0EA85FB85099597FF09C093
S11318B02B81019611F480E101C080E2822B8B839D
S11318C009C02E813F812F5F3F4F3F832E839C01B0
S11318D0332702C02FEF3FEFC901DF91CF91089565
S11318E00F931F93CF93DF938C01EB018B8181FDC9
S11318F003C00FEF1FEF1AC082FF0DC02E813F817E
S11319008C819D812817390764F4E881F98101935A
S1131910F983E88306C0E885F985802F0995892B2A
S113192041F78E819F8101969F838E83C801DF9149
S1131930CF911F910F910895FB01238120FF13C0C4
S113194026FD11C08F3F3FEF930769F082832F7DFF
S113195020642383268137812150310937832683EC
S11319609C01332702C02FEF3FEFC9010895FA010C
S1131970AA27283051F1203181F1E8946F936E7FCA
S11319806E5F7F4F8F4F9F4FAF4FB1E03ED0B4E0BB
S11319903CD0670F781F891F9A1FA11D680F791FFC
S11319A08A1F911DA11D6A0F711D811D911DA11D0D
S11319B020D009F468943F912AE0269F112430191D
S11319C0305D3193DEF6CF010895462F4770405DB8
S11319D04193B3E00FD0C9F7F6CF462F4F70405D67
S11319E04A3318F0495D31FD4052419302D0A9F7C2
S11319F0EACFB4E0A6959795879577956795BA95BC
S1131A00C9F700976105710508959B01AC010A2E81
S1131A1006945795479537952795BA95C9F7620F58
S1131A20731F841F951FA01D089599278827089563
S1131A302F923F924F925F926F927F928F929F92DA
S1131A40AF92BF92CF92DF92EF92FF920F931F93C8
S1131A50CF93DF93CDB7DEB7CA1BDB0B0FB6F89479
S1131A60DEBF0FBECDBF09942A88398848885F84B9
S1131A706E847D848C849B84AA84B984C884DF802A
S1131A80EE80FD800C811B81AA81B981CE0FD11D0E
S1131A900FB6F894DEBF0FBECDBFED010895F894E4
S1051AA0FFCF72
S1131AA237015265706C793A2025730A0D003F00A4
S1131AB2444452412025640A0025640044445242AD
S1131AC22025640A0050412025640A006176725F71
S1131AD273696F5F697372202D20310D0A002578B6
S1131AE200777220253034783A20253032780A0D76
S1131AF200726420253034783A20253032780A0D79
S1131B0200737220253032780A0D00202530347893
S1131B123A2000202530327820005752544553543D
S1131B22202564206279746573200A0D00613031C6
S1131B32323334353637383962303132333435362C
S1131B4237383963303132333435363738396430E3
S1131B52313233343536373839653031323334350E
S1131B62363738396630313233343536373839001E
S1111B7250422025640A00202C2D0A0D00008C
S9030000FC
