:100000000C942A000C945B000C945B000C945B0035
:100010000C945B000C945B000C945B000C945B00F4
:100020000C945B000C945B000C945B000C945B00E4
:100030000C945B000C945B000C945B000C945B00D4
:100040000C945B000C945B000C945B000C945B00C4
:100050000C945B0011241FBECFE5D4E0DEBFCDBF02
:1000600010E0A0E6B0E0E6E6FBE002C005900D92ED
:10007000A239B107D9F720E0A2E9B0E001C01D9292
:10008000AE39B207E1F705EF10E00F2EF3EEEF2ED9
:10009000F0E0FF2EF02D40E052E16AE770E080E8EA
:1000A00095E20E948F00B701C8010E944B010E9497
:1000B0005D000C94B1050C940000CF93DF93CDB795
:1000C000DEB786E690E0892F8F9386E690E08F93E7
:1000D0000E9496010F900F9085E00E941101082E5A
:1000E000000C990B90939300809392008091920062
:1000F00090919300292F2F938F938CE890E0892F74
:100100008F938CE890E08F930E9496010F900F9050
:100110000F900F9080E090E0DF91CF910895CF9302
:10012000DF93CDB7DEB72C970FB6F894DEBF0FBEC6
:10013000CDBF9C838B834D835E836F8378878B8158
:100140009C81CC01A0E0B0E0880F991FAA1FBB1FC3
:10015000880F991FAA1FBB1F880F991FAA1FBB1FBB
:10016000880F991FAA1FBB1F9C01AD018D819E8125
:10017000AF81B885BC01CD010E942901DA01C90116
:1001800001979A83898380E490E029813A81232F23
:100190003327FC01208389E290E02981FC01208340
:1001A0008AE290E028E1FC01208380E490E02EE8E0
:1001B000FC0120832C960FB6F894DEBF0FBECDBF96
:1001C000DF91CF910895CF93DF93CDB7DEB70000D5
:1001D0008BE290E0FC0180818823D4F78CE290E0F0
:1001E000FC018081DF91CF910895CF93DF931F921F
:1001F000CDB7DEB7898300008BE290E0FC018081FF
:10020000882F90E080729927892BB1F38CE290E0DF
:100210002981FC01208381E090E00F90DF91CF9154
:100220000895CF93DF931F92CDB7DEB7898389817D
:10023000882311F481E009C0898181500E94110155
:10024000982F8981989F802D11240F90DF91CF9155
:100250000895A1E21A2EAA1BBB1BFD010DC0AA1F07
:10026000BB1FEE1FFF1FA217B307E407F50720F01F
:10027000A21BB30BE40BF50B661F771F881F991F9A
:100280001A9469F760957095809590959B01AC01E3
:10029000BD01CF0108950F931F93CF93DF93009774
:1002A00031F46115710519F480E090E03AC08B01DA
:1002B000EC016EE070E081E090E00E947E03FC01C2
:1002C000892B91F380E883830115110571F0138761
:1002D000028781E883838091940090919500892B17
:1002E00021F4F0939500E09394002097C9F0D18712
:1002F000C08783818260838380919600909197006C
:10030000892B71F4F0939700E09396008091980008
:1003100090919900892B21F4F0939900E093980033
:10032000CF01DF91CF911F910F910895A0E0B0E030
:10033000ECE9F1E00C948A05AE014B5F5F4FFA01E6
:1003400061917191AF0180919600909197000E9408
:10035000AC01E2E00C94A605ACE0B0E0E2EBF1E029
:100360000C947A057C016B018A01FC0117821682CC
:10037000838181FFBDC1CE0101964C01F7019381BC
:10038000F60193FD859193FF81916F01882309F414
:10039000ABC1853239F493FD859193FF81916F0153
:1003A000853229F4B70190E00E94E404E7CF512C94
:1003B000312C20E02032A0F48B3269F030F480320E
:1003C00059F0833269F420612CC08D3239F08033CA
:1003D00039F4216026C02260246023C0286021C037
:1003E00027FD27C030ED380F3A3078F426FF06C0DD
:1003F000FAE05F9E300D1124532E13C08AE0389E20
:10040000300D1124332E20620CC08E3221F426FDD3
:100410006BC1206406C08C3611F4206802C0883697
:1004200041F4F60193FD859193FF81916F01811154
:10043000C1CF982F9F7D9554933028F40C5F1F4FA8
:10044000FFE3F9830DC0833631F0833771F08335D4
:1004500009F05BC022C0F801808189830E5F1F4FC5
:1004600044244394512C540115C03801F2E06F0E1E
:10047000711CF801A080B18026FF03C0652D70E0DB
:1004800002C06FEF7FEFC5012C870E94D9042C01B9
:1004900083012C852F77222E17C03801F2E06F0ED2
:1004A000711CF801A080B18026FF03C0652D70E0AB
:1004B00002C06FEF7FEFC5012C870E94C7042C019B
:1004C0002C852068222E830123FC1BC0832D90E005
:1004D00048165906B0F4B70180E290E00E94E404A7
:1004E0003A94F4CFF50127FC859127FE81915F01B5
:1004F000B70190E00E94E40431103A94F1E04F1A01
:1005000051084114510471F7E5C0843611F0893661
:1005100039F5F80127FF07C06081718182819381DD
:100520000C5F1F4F08C060817181072E000C880B83
:10053000990B0E5F1F4F2F76722E97FF09C0909573
:100540008095709561957F4F8F4F9F4F2068722ED9
:100550002AE030E0A4010E941C05A82EA81844C07F
:10056000853729F42F7EB22E2AE030E025C0F22F05
:10057000F97FBF2E8F36C1F018F4883579F0B4C0FA
:10058000803719F0883721F0AFC02F2F2061B22EAD
:10059000B4FE0DC08B2D8460B82E09C024FF0AC0A4
:1005A0009F2F9660B92E06C028E030E005C020E1FC
:1005B00030E002C020E132E0F801B7FE07C0608100
:1005C0007181828193810C5F1F4F06C060817181B0
:1005D00080E090E00E5F1F4FA4010E941C05A82E32
:1005E000A818FB2DFF777F2E76FE0BC0372D3E7FA0
:1005F000A51450F474FE0AC072FC08C0372D3E7E6C
:1006000005C0BA2C372D03C0BA2C01C0B52C34FF5D
:100610000DC0FE01EA0DF11D8081803311F4397E99
:1006200009C032FF06C0B394B39404C0832F867808
:1006300009F0B39433FD13C030FF06C05A2CB31435
:1006400018F4530C5B18B32CB31468F4B70180E2B0
:1006500090E03C870E94E404B3943C85F5CFB3144A
:1006600010F43B1801C0312C34FF12C0B70180E3F5
:1006700090E03C870E94E4043C8532FF17C031FDC6
:1006800003C088E790E002C088E590E0B7010CC0A5
:10069000832F867859F031FF02C08BE201C080E2DF
:1006A00037FD8DE2B70190E00E94E404A51438F410
:1006B000B70180E390E00E94E4045A94F7CFAA9433
:1006C000F401EA0DF11D8081B70190E00E94E4047D
:1006D000A110F5CF332009F451CEB70180E290E0AC
:1006E0000E94E4043A94F6CFF7018681978102C014
:1006F0008FEF9FEF2C96E2E10C9496050F931F93DA
:10070000CF93DF93869F8001879F100D969F100DDA
:100710001124C8010E949A03EC01009729F0A80156
:1007200060E070E00E94D204CE01DF91CF911F9172
:100730000F910895CF93DF938230910510F482E0FA
:1007400090E0E0919C00F0919D0020E030E0C0E05E
:10075000D0E0309711F14081518148175907C0F01E
:100760004817590761F482819381209719F09B8380
:100770008A832BC090939D0080939C0026C02115F6
:10078000310519F04217530718F49A01BE01DF0131
:10079000EF010280F381E02DDCCF2115310509F155
:1007A000281B390B2430310590F412968D919C91C1
:1007B00013976115710521F0FB019383828304C0B7
:1007C00090939D0080939C00FD01329644C0FD01F2
:1007D000E20FF31F81939193225031092D933C93A3
:1007E0003AC020919A0030919B00232B41F4209134
:1007F00062003091630030939B0020939A00209117
:100800006000309161002115310541F42DB73EB7EC
:100810004091640050916500241B350BE0919A00D3
:10082000F0919B00E217F307A0F42E1B3F0B281753
:10083000390778F0AC014E5F5F4F2417350748F059
:100840004E0F5F1F50939B0040939A0081939193AA
:1008500002C0E0E0F0E0CF01DF91CF9108950F9367
:100860001F93CF93DF93009709F48CC0FC0132975C
:100870001382128200919C0010919D0001151105B8
:1008800081F420813181820F931F20919A00309151
:100890009B002817390779F5F0939B00E0939A00A5
:1008A00071C0D80140E050E0AE17BF0750F4129677
:1008B0002D913C911397AD012115310509F1D90115
:1008C000F3CF9D01DA013383228360817181860F2A
:1008D000971F8217930769F4EC0128813981260F4D
:1008E000371F2E5F3F4F318320838A819B81938303
:1008F0008283452B29F4F0939D00E0939C0042C035
:100900001396FC93EE931297ED01499159919E0134
:10091000240F351FE217F30771F480819181840F52
:10092000951F029611969C938E93828193811396C4
:100930009C938E931297E0E0F0E0D80112968D918F
:100940009C911397009719F0F8018C01F6CF8D91C7
:100950009C9198012E5F3F4F820F931F20919A0028
:1009600030919B002817390769F4309729F41092C9
:100970009D0010929C0002C01382128210939B0073
:1009800000939A00DF91CF911F910F910895FC0180
:100990000590615070400110D8F7809590958E0FAA
:1009A0009F1F0895DC0101C06D9341505040E0F756
:1009B0000895FC016150704001900110D8F78095B6
:1009C00090958E0F9F1F08950F931F93CF93DF93E2
:1009D000FB01238121FD03C08FEF9FEF28C022FF81
:1009E00016C046815781248135814217530744F44C
:1009F000A081B1819D012F5F3F4F318320838C9374
:100A0000268137812F5F3F4F3783268310C0EB014C
:100A1000092F182F0084F185E02D0995892BE1F627
:100A20008E819F8101969F838E83812F902FDF91EE
:100A3000CF911F910F910895FA01AA27283051F103
:100A4000203181F1E8946F936E7F6E5F7F4F8F4FFF
:100A50009F4FAF4FB1E03ED0B4E03CD0670F781F5E
:100A6000891F9A1FA11D680F791F8A1F911DA11D43
:100A70006A0F711D811D911DA11D20D009F468947C
:100A80003F912AE0269F11243019305D3193DEF624
:100A9000CF010895462F4770405D4193B3E00FD0DA
:100AA000C9F7F6CF462F4F70405D4A3318F0495DC5
:100AB00031FD4052419302D0A9F7EACFB4E0A695A8
:100AC0009795879577956795BA95C9F700976105CA
:100AD000710508959B01AC010A2E06945795479520
:100AE00037952795BA95C9F7620F731F841F951F15
:100AF000A01D08952F923F924F925F926F927F9226
:100B00008F929F92AF92BF92CF92DF92EF92FF921D
:100B10000F931F93CF93DF93CDB7DEB7CA1BDB0BC9
:100B20000FB6F894DEBF0FBECDBF09942A8839886E
:100B300048885F846E847D848C849B84AA84B98475
:100B4000C884DF80EE80FD800C811B81AA81B98181
:100B5000CE0FD11D0FB6F894DEBF0FBECDBFED0195
:060B60000895F894FFCF98
:100B660000009E00200052656375727369766520E9
:100B760066756E6374696F6E7320616E6420474399
:100B86004320666F72204156520A0D0035213D25DD
:020B96006400F9
:00000001FF
