:100000000C942A000C9455000C9455000C94550047
:100010000C9455000C9455000C9455000C9455000C
:100020000C9455000C9455000C9455000C945500FC
:100030000C9455000C9455000C9455000C945500EC
:100040000C9455000C9455000C9455000C945500DC
:100050000C94550011241FBECFE5D4E0DEBFCDBF08
:1000600010E0A0E6B0E0EAE1FCE002C005900D92ED
:10007000A23AB107D9F710E0A2EAB0E001C01D92A0
:10008000AE3AB107E1F780E895E240E052E16AE775
:1000900070E00E94830082EB90E06EEA70E00E94C4
:1000A00081010E9457000C940B060C94000000D0B4
:1000B00080E690E0EDB7FEB7928381830E94CB018A
:1000C0000F900F9085E00E945101992787FD909530
:1000D0009093A3008093A2008091A2009091A3002E
:1000E00000D000D026E830E0EDB7FEB732832183A0
:1000F000948383830E94CB010F900F900F900F90F9
:1001000080E090E00895CF92DF92EF92FF926A0133
:100110007B01A0E0B0E0880F991FAA1FBB1F880FCA
:10012000991FAA1FBB1F9C01AD01220F331F441F43
:10013000551F220F331F441F551FC701B6010E94D0
:100140005F012150304030BD29B988E18AB98EE87D
:1001500080BDFF90EF90DF90CF9008955F9BFECF22
:100160008CB108955D9BFECF8CB981E090E008953D
:10017000CF93DF93EC018881882331F021960E9490
:10018000B20089918823D9F7DF91CF910895EF923A
:10019000FF920F931F93CF93DF938C01C0E0D0E0C9
:1001A0000F2EFFE8EF2EF0E0FF2EF02D0E94AE00A4
:1001B0008A30E1F38D3019F08830C1F40BC08CE83F
:1001C00090E00E94B800DF91CF911F910F91FF90B6
:1001D000EF9008951C161D060CF42197C7010E948C
:1001E000B800F801EC0FFD1F1082E0CF8032F4F26E
:1001F000F801EC0FFD1F80832196F801EC0FFD1F25
:1002000010820E94B200D2CFCF92DF92EF92FF9283
:100210000F931F93CF93DF93CDB7DEB764970FB6DD
:10022000F894DEBF0FBECDBF6C017B018BE10E9455
:10023000B2008DB79EB708970FB6F8949EBF0FBE59
:100240008DBFEDB7FEB731968E010F5F1F4FADB773
:10025000BEB712961C930E93119783E990E0938397
:100260008283F582E482D782C6820E94E0018DB744
:100270009EB708960FB6F8949EBF0FBE8DBFC801FB
:100280000E94B80064960FB6F894DEBF0FBECDBFD3
:10029000DF91CF911F910F91FF90EF90DF90CF9062
:1002A0000895CF93C82F882339F081500E945101BF
:1002B0008C9F802D112401C081E0CF910895A1E28F
:1002C0001A2EAA1BBB1BFD010DC0AA1FBB1FEE1FD0
:1002D000FF1FA217B307E407F50720F0A21BB30B1B
:1002E000E40BF50B661F771F881F991F1A9469F797
:1002F00060957095809590959B01AC01BD01CF01F3
:1003000008950F931F93CF93DF938C01EB01009718
:1003100011F42097C1F181E090E06EE070E00E945E
:10032000E003FC01009789F180E88383209771F056
:10033000D387C28781E883838091A4009091A50030
:10034000009721F4F093A500E093A4000115110596
:10035000E1F0118700878381826083838091A6000A
:100360009091A700009789F4F093A700E093A6006E
:100370008091A8009091A900009739F4F093A9000A
:10038000E093A80002C0E0E0F0E0CF01DF91CF9160
:100390001F910F910895A0E0B0E0E1EDF1E00C9421
:1003A000E405FE013596619171918091A6009091CE
:1003B000A700AF010E9402022096E2E00C94000622
:1003C000AEE0B0E0E6EEF1E00C94E2050D891E89A6
:1003D00086E08C831A8309838FEF9FE79E838D834A
:1003E000AE01475E5F4FCE0101966F89788D0E9406
:1003F0000202EF81F885E00FF11F10822E96E4E0F3
:100400000C94FE05ADE0B0E0E8E0F2E00C94D40519
:100410003C017D876C875A01FC011782168283811B
:1004200081FFC8C12E010894411C511CF301938126
:10043000EC85FD8593FD859193FF8191FD87EC8788
:10044000882309F4B3C1853241F493FD859193FF6C
:100450008191FD87EC87853229F490E0B3010E94F9
:100460004A05E4CFFF24EE2410E01032B0F48B32C2
:1004700069F08C3228F4803251F0833271F40BC071
:100480008D3239F0803349F411602CC01260146051
:1004900029C0186027C0106125C017FD2EC0282F65
:1004A00020532A3098F416FF08C08F2D880FF82E9D
:1004B000FF0CFF0CF80EF20E15C08E2D880FE82EE3
:1004C000EE0CEE0CE80EE20E10620CC08E3221F43F
:1004D00016FD6CC1106406C08C3611F4106802C0A1
:1004E000883659F4EC85FD8593FD859193FF8191C4
:1004F000FD87EC87882309F0B8CF982F9554933067
:1005000018F09052933038F424E030E0A20EB31E7D
:100510003FE339830FC0833631F0833781F0833571
:1005200009F05AC022C0F5018081898322E030E0C1
:10053000A20EB31E21E0C22ED12C420114C092E0C3
:10054000292E312C2A0C3B1CF5018080918016FF4E
:1005500003C06F2D70E002C06FEF7FEFC4010E94F7
:100560003F056C0151011F7715C082E0282E312C08
:100570002A0C3B1CF5018080918016FF03C06F2D73
:1005800070E002C06FEF7FEFC4010E942D056C0187
:100590001068510113FD1CC006C080E290E0B30159
:1005A0000E944A05EA948E2D90E0C816D906A8F359
:1005B0000FC0F40117FD859117FF81914F0190E065
:1005C000B3010E944A05E110EA940894C108D108D9
:1005D000C114D10471F7E7C0843611F0893651F5A2
:1005E000F50117FF07C080819181A281B38124E0CA
:1005F00030E008C080819181AA2797FDA095BA2F8D
:1006000022E030E0A20EB31E012F0F76B7FF08C024
:10061000B095A095909581959F4FAF4FBF4F0068C3
:10062000BC01CD01A2012AE030E00E947605D82E5F
:10063000D4183FC0853721F41F7E2AE030E020C067
:10064000197F8F36A9F0803720F4883509F0AEC0C5
:100650000BC0803721F0883709F0A8C001C01061B5
:1006600014FF09C0146007C014FF08C0166006C05C
:1006700028E030E005C020E130E002C020E132E0B7
:10068000F50117FF07C0608171818281938144E089
:1006900050E006C06081718180E090E042E050E06F
:1006A000A40EB51EA2010E947605D82ED418012FE3
:1006B0000F7706FF09C00E7FDF1430F404FF06C079
:1006C00002FD04C00F7E02C01D2D01C01F2D802F12
:1006D00090E004FF0CC0FE01ED0DF11D20812033E0
:1006E00011F4097E09C002FF06C01E5F05C08678AE
:1006F0009070009709F01F5F802E992403FD12C0AF
:1007000000FF0DC0FD2C1E1550F4FE0CF11A1E2D1D
:1007100006C080E290E0B3010E944A051F5F1E15EB
:10072000C0F304C01E1510F4E11A01C0EE2484FECB
:100730000FC080E390E0B3010E944A0582FE1FC013
:1007400081FE03C088E590E010C088E790E00DC00E
:10075000C40186789070009791F081FC02C080E21D
:1007600001C08BE207FD8DE290E0B3010E944A05D3
:1007700006C080E390E0B3010E944A05FA94DF14BA
:10078000C0F3DA94F201ED0DF11D808190E0B30128
:100790000E944A05DD20A9F706C080E290E0B3017F
:1007A0000E944A05EA94EE20C1F740CEF30186810B
:1007B000978102C08FEF9FEF2D96E2E10C94F00538
:1007C0000F931F93CF93DF93689F8001699F100D54
:1007D000789F100D1124C8010E94FE03C82FD92F45
:1007E000209731F08C2F60E070E0A8010E9438055E
:1007F000CE01DF91CF911F910F910895CF93DF9399
:10080000AC018230910510F442E050E0E091AC0080
:10081000F091AD0020E030E0A0E0B0E024C08081A5
:10082000918184179507D0F08417950771F4828120
:100830009381109729F013969C938E9312972CC056
:100840009093AD008093AC0027C02115310519F0BD
:100850008217930718F49C01BD01EF0192818381F7
:10086000DF01E92FF82F3097D1F621153105F9F086
:10087000C901841B950B8430910580F48A819B818A
:100880006115710521F0FB019383828304C090936D
:10089000AD008093AC00FE01329642C0FE01E80F2D
:1008A000F91F4193519302979983888339C08091AE
:1008B000AA009091AB00009741F480919D00909127
:1008C0009E009093AB008093AA0020919B003091F2
:1008D0009C002115310541F42DB73EB780919F0052
:1008E0009091A000281B390BE091AA00F091AB0079
:1008F000E217F30798F42E1B3F0B2417350770F00F
:10090000CA0102962817390748F08E0F9F1F90934F
:10091000AB008093AA004193519302C0E0E0F0E065
:10092000CF01DF91CF9108950F931F93CF93DF9362
:100930009C01009709F48CC0DC01129713961C925D
:100940001E9212976091AC007091AD006115710517
:1009500089F48D919C911197820F931F2091AA0089
:100960003091AB002817390769F5B093AB00A0931D
:10097000AA006EC0FB0140E050E001C0FC01EA1794
:10098000FB0730F482819381AF010097B9F71FC054
:10099000E9012297FB83EA8308811981C901800F4D
:1009A000911F8E179F0759F480819181800F911FAD
:1009B000029699838883828193819B838A834115E0
:1009C000510529F4B093AD00A093AC0041C0FA01E9
:1009D000B383A283C191D191EC0FFD1FAE17BF0766
:1009E00081F4F901929182918C0F9D1F0296DA0198
:1009F00011969C938E938281938113969C938E93F0
:100A00001297E0E0F0E002C0FB01BC01DB011296AE
:100A10008D919C9113970097B9F7CB0102962D9178
:100A20003C911197820F931F2091AA003091AB0047
:100A30002817390769F4309729F41092AD00109205
:100A4000AC0002C0138212827093AB006093AA00C4
:100A5000DF91CF911F910F910895FC010590615096
:100A600070400110D8F7809590958E0F9F1F0895C4
:100A7000DC0101C06D9341505040E0F70895FC0146
:100A80006150704001900110D8F7809590958E0FBD
:100A90009F1F08950F931F93CF93DF938C01EB015A
:100AA0008B8181FF1BC082FF0DC02E813F818C8115
:100AB0009D812817390764F4E881F9810193F9834E
:100AC000E88306C0E885F985802F0995009731F401
:100AD0008E819F8101969F838E8302C00FEF1FEF4F
:100AE000C801DF91CF911F910F910895FA01AA27B4
:100AF000283051F1203181F1E8946F936E7F6E5F61
:100B00007F4F8F4F9F4FAF4FB1E03ED0B4E03CD00E
:100B1000670F781F891F9A1FA11D680F791F8A1FF1
:100B2000911DA11D6A0F711D811D911DA11D20D058
:100B300009F468943F912AE0269F11243019305D12
:100B40003193DEF6CF010895462F4770405D419303
:100B5000B3E00FD0C9F7F6CF462F4F70405D4A3350
:100B600018F0495D31FD4052419302D0A9F7EACF18
:100B7000B4E0A6959795879577956795BA95C9F747
:100B800000976105710508959B01AC010A2E06943A
:100B90005795479537952795BA95C9F7620F731FF3
:100BA000841F951FA01D08952F923F924F925F9230
:100BB0006F927F928F929F92AF92BF92CF92DF926D
:100BC000EF92FF920F931F93CF93DF93CDB7DEB7D2
:100BD000CA1BDB0B0FB6F894DEBF0FBECDBF099466
:100BE0002A88398848885F846E847D848C849B84BD
:100BF000AA84B984C884DF80EE80FD800C811B81CB
:100C0000AA81B981CE0FD11D0FB6F894DEBF0FBEF9
:0A0C1000CDBFED010895F894FFCF69
:100C1A005265637572736976652066756E63746969
:100C2A006F6E7320616E642047434320666F7220A3
:100C3A004156520A0D0035213D2564000A0D00086F
:100C4A002008005B25643B256448000000AE0020B4
:020C5A00000098
:00000001FF
