S00C00006D61696E2E7372656373
S11300000C942A000C9447000C9447000C9447006D
S11300100C94A2040C9447000C9447000C944700E1
S11300200C9447000C9447000C9447000C94470030
S11300300C9447000C9447000C9447000C94470020
S11300400C9447000C9447000C9447000C94470010
S11300500C94470011241FBECFE5D8E0DEBFCDBF0E
S113006010E0A0E6B0E0ECE3FAE102C005900D92E6
S1130070A039B107D9F721E0A0E9B0E001C01D9291
S1130080A533B207E1F70E94C6040C941C0D0C942E
S11300900000A4E0B0E0EFE4F0E00C94490A7C0135
S11300A06A01FC018081823008F44AC1FB0190811D
S11300B0923008F442C1843079F4943009F040C19C
S11300C0F7019181FB018181981709F439C1A0E6F8
S11300D0EA2EA0E0FA2E34C1943009F42EC19230F5
S11300E091F4823009F02CC188E0F701DA01019023
S11300F00D928A95E1F7FB018181F70191818923B2
S1130100FA0181831CC1823009F417C1F70182818D
S11301109381FB01A281B381F701048115812681BA
S11301203781FB0184809580A680B780FC01EA1B9F
S1130130FB0BAF01F7FF04C0442755274E1B5F0B91
S1130140403251050CF074C01E161F06B4F524018C
S11301503501042E04C076946794579447940A9406
S1130160D2F749825A826B827C82412C512C320113
S1130170439404C0440C551C661C771C4A95D2F762
S113018041E0441A510861087108482059206A2046
S11301907B20812C912C54018394452846284728A0
S11301A019F4812C912C540149805A806B807C80F5
S11301B084289528A628B72846C0EF2B09F443C005
S11301C0840F951F28013901042E04C07694679486
S11301D0579447940A94D2F749825A826B827C825C
S11301E0412C512C3201439404C0440C551C661C10
S11301F0771C4A95D2F741E0441A51086108710806
S1130200402251226222732201E010E020E030E01B
S113021045284628472819F400E010E09801498051
S11302205A806B807C8004291529262937290BC024
S1130230A817B90724F4812C912C540104C0CD01D2
S113024000E010E09801F7014181FB01518145175D
S113025009F446C0442349F024013501401A510AE7
S1130260620A730A9301820104C0081919092A0950
S11302703B0937FD05C0F6011182938382830CC0CC
S113028041E0F60141839383828330952095109554
S113029001951F4F2F4F3F4F0483158326833783C8
S11302A00EC0880F991FAA1FBB1FF6018483958374
S11302B0A683B78382819381019793838283F60116
S11302C084819581A681B781AC01BD01415051095A
S11302D0610971094F3F5F4F6F4F7F4310F30CC0AB
S11302E0F601418393838283080D191D2A1D3B1D4A
S11302F0048315832683378383E0F6018083448156
S113030055816681778177FF1AC0DB01CA0181704C
S11303109927AA27BB277695679557954795842BE8
S1130320952BA62BB72B84839583A683B7838281D1
S1130330938101969383828302C07B0101C076017D
S1130340C7012496E0E10C94650AA0E2B0E0EBEA70
S1130350F1E00C94570A6D8F7E8F8F8F98A3298FAD
S11303603A8F4B8F5C8FBE016F5E7F4FCE014D96EF
S11303700E943304BE01675F7F4FCE0149960E94FD
S11303803304AE014F5F5F4FBE01675F7F4FCE0105
S113039041960E9449000E946903A096E2E00C94F1
S11303A0730AA0E2B0E0E7EDF1E00C94570A6D8F18
S11303B07E8F8F8F98A3298F3A8F4B8F5C8FBE01CE
S11303C06F5E7F4FCE014D960E943304BE01675F7E
S11303D07F4FCE0149960E9433048A8591E0892794
S11303E08A87AE014F5F5F4FBE01675F7F4FCE01CB
S11303F041960E9449000E946903A096E2E00C9491
S1130400730AA8E1B0E0E7E0F2E00C94510A6D8BC6
S11304107E8B8F8B988F298B3A8B4B8B5C8BBE0199
S1130420675F7F4FCE0145960E943304BE016F5F24
S11304307F4FCE0141960E9433049985923008F48F
S113044075C08981823008F474C02A853A812327D3
S11304502A87943011F0923019F4981367C06CC055
S1130460843039F41D861E861F86188A1C861B86D6
S113047004C0823029F484E08987CE0109965EC0E5
S11304808B859C852B813C81821B930B9C878B875E
S11304904D855E856F857889CD80DE80EF80F88418
S11304A04C155D056E057F0538F4440F551F661F16
S11304B0771F01979C878B87EFE1F0E000E010E065
S11304C020E030E480E090E0DC014C155D056E0531
S11304D07F0540F0802B912BA22BB32B4C195D0987
S11304E06E097F093695279517950795440F551F73
S11304F0661F771F319749F78C019D010F771127EC
S113050022273327003411052105310559F487FDCD
S113051009C0452B462B472B29F0805C9F4FAF4FDA
S1130520BF4F80788D879E87AF87B88BCE010996A1
S113053005C0CE01019602C080E690E00E946903E6
S11305406896E8E00C946D0AACE0B0E0EAEAF2E008
S11305500C94550A69877A878B879C87BE016F5FE5
S11305607F4FCE0109960E9433048981823091F134
S1130570823080F1843041F48A81882331F100E0B3
S113058010E020E030E829C02B813C8137FD22C0F7
S11305902F3131058CF78EE190E0821B930B0D8196
S11305A01E812F81388504C03695279517950795A8
S11305B08A95D2F78A81882381F030952095109509
S11305C001951F4F2F4F3F4F08C00FEF1FEF2FEF25
S11305D03FE703C000E010E09801B801C9012C9680
S11305E0E4E00C94710AA8E0B0E0E9EFF2E00C94C6
S11305F0510A8B019C011A826115710581059105CF
S113060019F482E089835DC083E089834EE150E080
S11306105C834B83C901B8010E942C0A019797FFA0
S113062039C0EE27FF27E81BF90B41E050E060E0FA
S113063070E00E2E04C0440F551F661F771F0A94E6
S1130640D2F74150510961097109402351236223B2
S11306507323C12CD12C7601C394452B462B472BF5
S113066019F4C12CD12C760104C036952795179521
S11306700795EA95D2F70C291D292E293F290D83C8
S11306801E832F8338872EE130E0281B390B3C83EF
S11306902B8317C0009729F40D831E832F8338877B
S11306A010C0082E04C0000F111F221F331F0A940C
S11306B0D2F70D831E832F833887481B590B5C8325
S11306C04B83CE0101960E9469032896E8E00C94BE
S11306D06D0A0F931F93CF93DF93DC0114964D9112
S11306E05D916D917C9117971196EC9111978C9176
S11306F0823020F460618FEF90E0A6C0843009F46A
S11307009EC0823009F495C04115510561057105FB
S113071009F492C012962D913C91139722388FEFD1
S113072038070CF058C0C2E8DFEFC21BD30BCA3144
S1130730D1056CF58A019B010C2E04C036952795D2
S1130740179507950A94D2F781E090E0A0E0B0E015
S11307500C2E04C0880F991FAA1FBB1F0A94D2F73E
S11307600197A109B10984239523A623B72341E066
S113077050E060E070E0892B8A2B8B2B19F440E069
S113078050E0BA01402B512B622B732B03C040E085
S113079050E0BA01DB01CA018F779927AA27BB274A
S11307A080349105A105B10539F447FF09C0405CC7
S11307B05F4F6F4F7F4F04C0415C5F4F6F4F7F4F60
S11307C081E090E041155105610520E4720748F588
S11307D080E090E026C0203831058CF5DB01CA01A9
S11307E08F779927AA27BB2780349105A105B105E6
S11307F039F447FF09C0405C5F4F6F4F7F4F04C01F
S1130800415C5F4F6F4F7F4F77FD04C0C901815832
S11308109F4F07C07695679557954795C9018058AE
S11308209F4F97E076956795579547959A95D1F799
S11308300BC080E090E005C080E090E005C08FEF41
S113084090E040E050E0BA01982F9695E0FB97F9CC
S1130850362F80FB37F9642F752F832FDF91CF91CB
S11308601F910F910895CF92DF92EF92DC01FB016B
S1130870CC901196DC90119712968C9112973FE7C9
S1130880E32EE8226E2DA60170E0982F991F992778
S1130890991F13962C91822F880F892B90E027FBA8
S11308A0222720F92183009729F541155105610577
S11308B0710511F482E027C082E89FEF938382835D
S11308C027E0440F551F661F771F2A95D1F783E051
S11308D0808309C0440F551F661F771F828193814F
S11308E001979383828341155105610580E478075C
S11308F088F320C08F3F910579F4411551056105B6
S1130900710519F484E0808319C0E4FE03C081E01A
S1130910808310C010820EC08F5791099383828305
S113092083E0808387E0440F551F661F771F8A95F5
S1130930D1F770644483558366837783EF90DF90A7
S1130940CF9008951F920F920FB60F9211242F93F8
S11309503F934F935F936F937F938F939F93AF9343
S1130960BF93EF93FF930E942207FF91EF91BF91F2
S1130970AF919F918F917F916F915F914F913F9133
S11309802F910F900FBE0F901F90189540E45FE1D8
S113099060E070E082E00E94F4060E940F0740E0ED
S11309A052E16AE770E080E895E20E94B70780E1CF
S11309B0E82E00E220E440E86BE370E08DEA90E08A
S11309C00E94170841E06BE370E088E990E00E9420
S11309D03E0968E370E088EA90E00E94780988EABA
S11309E090E00E94840988EA90E00E94840988EAE1
S11309F090E00E94840988EA90E00E94840988EAD1
S1130A0090E00E94840988EA90E00E94840988EAC0
S1130A1090E00E94840988EA90E00E94840980E9B9
S1130A2090E00E945007789402E010E0C0E0D0E02B
S1130A3088E990E00E944309C017D10739F488EA95
S1130A4090E00E9484098E010A5F1F4FC130D105D6
S1130A5021F48DEA90E00E946A0820919000309180
S1130A609100409192005091930060919400709194
S1130A7095008091960090919700A2E30E94170A36
S1130A8020939000309391004093920050939300F0
S1130A9060939400709395008093960090939700D0
S1130AA080E990E00E9476072196C43A81E0D80755
S1130AB00CF4BECFB9CFCF93DF9300D0CDB7DEB760
S1130AC01A821982FC012481358105C089819A81A9
S1130AD001969A83898389819A8182179307B4F353
S1130AE00F900F90DF91CF910895CF93DF9300D0B3
S1130AF0CDB7DEB71A821982FC012681378105C081
S1130B0089819A8101969A83898389819A8182173E
S1130B109307B4F30F900F90DF91CF9108950F9343
S1130B201F93CF93DF93EC01162F062F02950F70BE
S1130B30E881F9818081807C802B8083CE010E94B2
S1130B407505E881F9818081807C8061802B8083B8
S1130B50CE010E947505E881F9818081807C802B1B
S1130B608083CE010E945B051F70E881F98180813A
S1130B70807C812B8083CE010E947505E881F981F8
S1130B808081807C8061812B8083CE010E947505E9
S1130B90E881F9818081807C812B8083CE01DF9183
S1130BA0CF911F910F910C945B05EF92FF920F93DD
S1130BB01F93CF93DF937C01EB01FC01718360836E
S1130BC0538342833583248317830683FA01808108
S1130BD08F6380838881807C8883C7010E945B0542
S1130BE08881807C83608883C7010E947505888121
S1130BF0807C83618883C7010E9475058881807C1D
S1130C0083608883C7010E945B058881807C836040
S1130C108883C7010E9475058881807C83618883ED
S1130C20C7010E9475058881807C83608883C70121
S1130C300E945B058881807C83608883C7010E9451
S1130C4075058881807C83618883C7010E9475054E
S1130C508881807C83608883C7010E945B058881CA
S1130C60807C82608883C7010E9475058881807CAE
S1130C7082618883C7010E9475058881807C8260B7
S1130C808883C7010E945B0568E2C7010E948F0543
S1130C906CE0C7010E948F0561E0C7010E948F05C7
S1130CA066E0C701DF91CF911F910F91FF90EF9004
S1130CB00C948F05FF920F931F93CF93DF93EC0156
S1130CC0062FF62EF2948FE0F8221F2D1062E88191
S1130CD0F9818081807C812B8083CE010E947505FF
S1130CE0E881F9818081807C80638F298083CE01B3
S1130CF00E947505E881F9818081807C812B808345
S1130D00CE010E945B050F70102F1062E881F981FB
S1130D108081807C812B8083CE010E947505E881CF
S1130D20F9818081807C8063802B8083CE010E9446
S1130D307505E881F9818081807C812B8083CE01D7
S1130D40DF91CF911F910F91FF900C945B050F934E
S1130D501F93CF93DF938C01EB0103C0C8010E9462
S1130D605A0669916111FACFDF91CF911F910F91CA
S1130D70089560E80C948F05FC01718360835383AC
S1130D804283558344830895FC01848195810196AF
S1130D909583848320813181281739073CF482812B
S1130DA093819583848321E030E002C020E030E029
S1130DB0C9010895FC0184819581019795838483F9
S1130DC022813381821793073CF48081918195833A
S1130DD0848321E030E002C020E030E0C9010895BE
S1130DE0FC018481958108950F931F938A019B01CF
S1130DF000932D0110932E0120932F013093300185
S1130E0080933101E5E2F1E01082118212821382B3
S1130E1014821582168217821F910F91089585B549
S1130E20887F846085BD85B5886085BD89B7806805
S1130E3089BF80913101823011F48AEF01C08DE7BE
S1130E4083BD0895AF92BF92CF92DF92EF92FF924B
S1130E500F931F93E5E2F1E0A080B180C280D380BC
S1130E60E480F580068117812091310130E040E073
S1130E7050E060E070E080E090E00E940E0A208381
S1130E8031834283538364837583868397831F915D
S1130E900F91FF90EF90DF90CF90BF90AF900895A7
S1130EA0CF93FC018FB7F894A5E2B1E0CC911196F1
S1130EB07C91119712966C91129713965C911397EB
S1130EC014964C91149715963C91159716962C915F
S1130ED0169717969C91C0837183628353834483CE
S1130EE03583268397838FBFCF9108958F929F92E6
S1130EF0AF92BF92CF92DF92EF92FF920F931F9324
S1130F00CF93DF93CDB7DEB728970FB6F894DEBF43
S1130F100FBECDBF4C01CE0101960E945007F401D3
S1130F20208131814281538164817581A980BA8095
S1130F30CB80DC80ED80FE800F81188586819781CF
S1130F400E94230A09F038F728960FB6F894DEBFFA
S1130F500FBECDBFDF91CF911F910F91FF90EF9006
S1130F60DF90CF90BF90AF909F908F9008959C0199
S1130F70CB01BA0140E050E0E4E0220F331F441FEC
S1130F80551FEA95D1F70E94EC092150310930BD73
S1130F9029B988E18AB98EE880BD08955D9BFECFAA
S1130FA08CB981E090E00895CF93DF93EC0102C007
S1130FB00E94CE0789918111FBCFDF91CF910895D3
S1130FC00F931F93CF93DF93CDB7DEB766970FB61A
S1130FD0F894DEBF0FBECDBF182F092F8BE16D8BA8
S1130FE07E8B0E94CE070F931F937E897F936D891A
S1130FF06F938FE690E09F938F938E010F5F1F4F47
S11310001F930F930E947E0AC8010E94D4070FB653
S1131010F894DEBF0FBECDBF66960FB6F894DEBF60
S11310200FBECDBFDF91CF911F910F910895AF9265
S1131030BF92CF92DF92EF92FF920F931F93CF93C1
S1131040DF931F92CDB7DEB75C016B01F02E805C9D
S11310509F4F29830E940D092981422FB601C501A2
S1131060825A9F4F0E94B30902E310E020EA3FE056
S113107044E350E065E370E0C5018A599F4F0E9444
S1131080D5054F2DB601C501885B9F4F0E9492097B
S11310904E2DB601C501805B9F4F0E9492094AE024
S11310A050E062E370E0C501885A9F4F0E94BC067D
S11310B061E070E0C50182599F4F0F90DF91CF919D
S11310C01F910F91FF90EF90DF90CF90BF90AF9062
S11310D00C94F008EF92FF920F931F93CF93DF933A
S11310E0EC01885B9F4F0E94A309892B29F0CE0154
S11310F0885A9F4F0E94C406CE01805B9F4F0E9476
S1131100A3098E01085A1F4F892B19F0C8010E94A8
S1131110DA06C8010E94F0068E010E581F4FF8012E
S113112091838083CE01805C9F4F0E941E0920E042
S113113030E040E05FE30E94A5010E94A4029B010D
S11311407E01F0E7EF0EF11CF70171836083F80173
S113115060817181621B730BFE01EC58FF4F718338
S11311606083CE0182599F4F0E94F408FE01EA5821
S1131170FF4F91838083BC01CE01825A9F4F0E940E
S1131180C3091F928FED8F93F80191819F939081F2
S11311909F931F928F93F70181818F9380818F9307
S11311A087E790E09F938F93DF93CF930E947E0A0B
S11311B08E010A591F4FC8010E94B9068DB79EB708
S11311C00C960FB6F8949EBF0FBE8DBFBE01C8012A
S11311D0DF91CF911F910F91FF90EF900C94A70690
S11311E0FC01108261830895FC018181992787FDA8
S11311F09095861797071CF481E0808307C091952A
S113120081959109681779070CF410828081282F41
S1131210332727FD3095932F0895FC017183608354
S1131220DB011197B383A2836250710975836483D0
S113123046838C91409548234C93089540E355E7A9
S1131240FC016681848195810E94D309BC0180E000
S113125090E00E94F30220E030E64AEE56E40E9459
S113126001022AE037ED43EA5EE30E94D10125E75B
S113127032E04AE95BE30E940102089521E0FC01A7
S113128020870C9492090F931F93CF93DF93EC0163
S11312900E94A309892B39F088858F5F888787305E
S11312A014F081E088878E01075F1F4F2885822F05
S11312B0992787FD90959F932F938DE890E09F93B6
S11312C08F931F930F930E947E0A64E170E084E180
S11312D090E00E94E0070F900F900F900F900F90F6
S11312E00F90C801DF91CF911F910F910C94D407F7
S11312F0FC0181E0808372836183DB011197B483F5
S1131300A3838FEF8C930895FC018081880F990B40
S1131310811101C081E08083A181B28180818095A7
S11313208C930895FC0171836083DB011197B3836F
S1131330A283625071097583648346838C914095BE
S113134048234C930895DC011496ED91FC91159774
S1131350408116968C91482321E030E011F420E07E
S113136030E0C9010895FC0171836083DB011197AA
S1131370B383A283625071097583648346838C911D
S1131380842B8C930895DC01ED91FC9111971696B2
S11313908C919081672B19F0982B908308958095F8
S11313A0892380830895DC01E0E0F0E09F01E417E5
S11313B0F50768F47C91762311F0319603C00000A0
S11313C0000000002F5F3F4F2417350798F3CF012B
S11313D0089580E090E00895A1E21A2EAA1BBB1B99
S11313E0FD010DC0AA1FBB1FEE1FFF1FA217B307ED
S11313F0E407F50720F0A21BB30BE40BF50B661F03
S1131400771F881F991F1A9469F7609570958095C6
S113141090959B01AC01BD01CF0108952A0D3B1DA0
S11314204C1D5D1D6E1D7F1D801F911F089500249E
S1131430A7FD00942A0F301D401D501D601D701D16
S1131440801D901D08952A153B054C055D056E050C
S11314507F058007910708950E94350A84FF089547
S1131460CB010E94350A805F0895AA27992329F4A5
S1131470A85F982B11F480E10895903118F4AD5FC2
S11314809295A395990FE8F78A2F992708952F929B
S11314903F924F925F926F927F928F929F92AF9200
S11314A0BF92CF92DF92EF92FF920F931F93CF934D
S11314B0DF93CDB7DEB7CA1BDB0B0FB6F894DEBFE4
S11314C00FBECDBF09942A88398848885F846E840A
S11314D07D848C849B84AA84B984C884DF80EE8054
S11314E0FD800C811B81AA81B981CE0FD11D0FB65D
S11314F0F894DEBF0FBECDBFED010895AEE0B0E0BD
S1131500E4E8FAE00C94550A0D891E8986E08C8380
S11315101A8309838FEF9FE79E838D83CE014996BB
S1131520AC016F89788DCE0101960E94A00AEF81EB
S1131530F885E00FF11F10822E96E4E00C94710AF6
S1131540ACE0B0E0E6EAFAE00C94470A7C016B01F7
S11315508A01FC0117821682838181FFC6C1882417
S11315608394912C8C0E9D1EF7019381F60193FDBB
S1131570859193FF81916F01882309F4B2C185326B
S113158039F493FD859193FF81916F01853229F49C
S1131590B70190E00E94920CE7CF512C312C20E04F
S11315A02032A8F48B3261F028F4803251F0833277
S11315B071F40BC08D3239F0803349F4216028C0B6
S11315C02260246025C0286023C0206121C027FD3B
S11315D027C0382F30533A3078F426FF06C0FAE09B
S11315E05F9E300D1124532E13C08AE0389E300DB7
S11315F01124332E20620CC08E3221F426FD71C1D9
S1131600206406C08C3611F4206802C0883641F488
S1131610F60193FD859193FF81916F018111C0CFF4
S1131620982F9554933018F09052933028F40C5F0F
S11316301F4FFFE3F9830DC0833631F0833771F018
S1131640833509F05EC023C0F801808189830E5F71
S11316501F4F44244394512C540115C03801F2E027
S11316606F0E711CF801A080B18026FF03C0652DA8
S113167070E002C06FEF7FEFC5012C870E94870CDA
S11316802C0183012C856FE7262E222218C03801F5
S1131690F2E06F0E711CF801A080B18026FF03C038
S11316A0652D70E002C06FEF7FEFC5012C870E94AB
S11316B07C0C2C012C8550E8252E222A830123FC46
S11316C01CC006C0B70180E290E00E94920C3A94DC
S11316D0832D90E048165906A8F30FC0F50127FCA6
S11316E0859127FE81915F01B70190E00E94920CE1
S11316F031103A94F1E04F1A51084114510471F732
S1131700EDC0843611F0893641F5F80127FF07C092
S113171060817181828193810C5F1F4F08C0608159
S11317207181882777FD8095982F0E5F1F4F4FE6B4
S1131730B42EB22297FF09C090958095709561955B
S11317407F4F8F4F9F4FF0E8BF2A2AE030E0A4017B
S11317500E94BE0CA82EA81843C0853731F43FEE72
S1131760B32EB2222AE030E024C099EFB92EB2227F
S11317708F36B9F020F4883509F0B3C00DC0803736
S113178021F0883709F0ADC002C020E1B22AB4FECE
S11317900BC084E0B82A08C024FF09C0E6E0BE2AD2
S11317A006C028E030E005C020E130E002C020E1BE
S11317B032E0F801B7FE07C06081718182819381B4
S11317C00C5F1F4F06C06081718180E090E00E5F66
S11317D01F4FA4010E94BE0CA82EA818FFE7BF2229
S11317E0B6FE0BC02B2D2E7FA51450F4B4FE0AC0F8
S11317F0B2FC08C02B2D2E7E05C07A2C2B2D03C0E5
S11318007A2C01C0752C24FF0DC0FE01EA0DF11DD8
S11318108081803311F4297E09C022FF06C07394AD
S1131820739404C0822F867809F0739423FD14C046
S113183020FF0FC05A2C731460F4530C5718732CE8
S113184008C0B70180E290E02C870E94920C739448
S11318502C857314B0F304C0731410F4371801C04A
S1131860312C24FF12C0B70180E390E02C870E9442
S1131870920C2C8522FF1EC021FF03C088E590E056
S113188002C088E790E0B7010CC0822F867891F0FF
S113189021FD02C080E201C08BE227FD8DE2B70189
S11318A090E00E94920C06C0B70180E390E00E9491
S11318B0920C5A94A514C0F3AA94F401EA0DF11DF4
S11318C0B701808190E00E94920CA110F5CF06C070
S11318D0B70180E290E00E94920C3A943110F8CF64
S11318E043CEF7012681378102C02FEF3FEFC901B4
S11318F02C96E2E10C94630AFC010590615070405F
S11319000110D8F7809590958E0F9F1F0895FC01C4
S11319106150704001900110D8F7809590958E0F1A
S11319209F1F08950F931F93CF93DF938C01EB01B7
S11319308B8181FD03C00FEF1FEF1AC082FF0DC022
S11319402E813F818C819D812817390764F4E881B9
S1131950F9810193F983E88306C0E885F985802F2E
S11319600995892B41F78E819F8101969F838E83F0
S1131970C801DF91CF911F910F910895FA01AA2711
S1131980283051F1203181F1E8946F936E7F6E5FBE
S11319907F4F8F4F9F4FAF4FB1E03ED0B4E03CD06C
S11319A0670F781F891F9A1FA11D680F791F8A1F4F
S11319B0911DA11D6A0F711D811D911DA11D20D0B6
S11319C009F468943F912AE0269F11243019305D70
S11319D03193DEF6CF010895462F4770405D419361
S11319E0B3E00FD0C9F7F6CF462F4F70405D4A33AE
S11319F018F0495D31FD4052419302D0A9F7EACF76
S1131A00B4E0A6959795879577956795BA95C9F7A4
S1131A1000976105710508959B01AC010A2E069497
S1131A205795479537952795BA95C9F7620F731F50
S10F1A30841F951FA01D0895F894FFCF9B
S1131A3C00000000000000000A0D00082008005BF4
S1131A4C25643B2564480025326420256343202803
S1131A5C253264202563432920202020002564009E
S9030000FC
