:100000000C942A000C943F000C943F000C943F0089
:100010000C943F000C943F000C943F000C943F0064
:100020000C943F000C943F000C943F000C943F0054
:100030000C943F000C943F000C943F000C943F0044
:100040000C943F000C943F000C943F000C943F0034
:100050000C943F0011241FBECFE5D4E0DEBFCDBF1E
:1000600010E0A0E6B0E0E0E3FBE002C005900D92F6
:10007000AA37B107D9F70E94B5000C9496050C94E5
:100080000000CF93DF93CDB7DEB76C970FB6F8942F
:10009000DEBF0FBECDBF7E0185E1E80EF11C04E698
:1000A00010E020EA3FE041E350E062E370E0C70186
:1000B0000E943101C7010E94150260E670E0C7018D
:1000C0000E94030283E090E00E941B0280E090E027
:1000D0000E947C028CE00E94A3028AE00E94A3029C
:1000E00080E090E00E944F0280E090E00E947C025D
:1000F0008EEE0E94A30280E090E00E944F02A12CAD
:10010000B12C80E2682E93E4892E2FED722E992473
:100110009A943CE6C32E30E0D32E8E010F5F1F4F22
:100120004EE2542E91E0A926A114B10419F01F92B9
:100130005F9202C01F926F921F928F921F927F92C6
:100140009F929F92DF92CF921F930F930E94C102C2
:100150000FB6F894DEBF0FBECDBFC7010E941802D4
:10016000B801C7010E940302DDCF0E944100CF9376
:10017000DF9300D0CDB7DEB71A821982FC0124814B
:10018000358105C089819A8101969A838983898105
:100190009A8182179307B4F30F900F90DF91CF915C
:1001A0000895CF93DF9300D0CDB7DEB71A821982BE
:1001B000FC012681378105C089819A8101969A8345
:1001C000898389819A8182179307B4F30F900F90E6
:1001D000DF91CF9108950F931F93CF93DF93EC019D
:1001E000162F062F02950F70E881F9818081807C9F
:1001F000802B8083CE010E94D100E881F98180812B
:10020000807C8061802B8083CE010E94D100E881B8
:10021000F9818081807C802B8083CE010E94B70091
:100220001F70E881F9818081807C812B8083CE01E1
:100230000E94D100E881F9818081807C8061812BDE
:100240008083CE010E94D100E881F9818081807C89
:10025000812B8083CE01DF91CF911F910F910C9460
:10026000B700EF92FF920F931F93CF93DF937C0120
:10027000EB01FC01718360835383428335832483C4
:1002800017830683FA0180818F6380838881807C55
:100290008883C7010E94B7008881807C836088833F
:1002A000C7010E94D1008881807C83618883C70157
:1002B0000E94D1008881807C83608883C7010E946E
:1002C000B7008881807C83608883C7010E94D10049
:1002D0008881807C83618883C7010E94D1008881E6
:1002E000807C83608883C7010E94B7008881807CFE
:1002F00083608883C7010E94D1008881807C8361EC
:100300008883C7010E94D1008881807C83608883B4
:10031000C7010E94B7008881807C82608883C70102
:100320000E94D1008881807C82618883C7010E94FD
:10033000D1008881807C82608883C7010E94B700D9
:1003400068E2C7010E94EB006CE0C7010E94EB006D
:1003500061E0C7010E94EB0066E0C701DF91CF9129
:100360001F910F91FF90EF900C94EB00FF920F9371
:100370001F93CF93DF93EC01062FF62EF2948FE0BC
:10038000F8221F2D1062E881F9818081807C812B09
:100390008083CE010E94D100E881F9818081807C38
:1003A00080638F298083CE010E94D100E881F9818A
:1003B0008081807C812B8083CE010E94B7000F70EA
:1003C000102F1062E881F9818081807C812B8083ED
:1003D000CE010E94D100E881F9818081807C806318
:1003E000802B8083CE010E94D100E881F981808139
:1003F000807C812B8083CE01DF91CF911F910F9163
:10040000FF900C94B7000F931F93CF93DF938C0151
:10041000EB0103C0C8010E94B60169916111FACFD6
:10042000DF91CF911F910F91089560E80C94EB003C
:1004300060EC0C94EB00D09AD19A18161906ACF423
:10044000D29A8130910589F0D39A8230910569F072
:10045000D49A8330910549F0D59A8430910529F0DA
:10046000D69A8530910509F0D79AD898D998181658
:100470001906A4F4DA988130910581F0DB98823076
:10048000910561F0DC988330910541F0DD9884306E
:10049000910521F0DE98059709F0DF9808958230E4
:1004A000910589F02CF4009751F0019799F409C057
:1004B0008430910561F04CF0059761F40AC0DA9838
:1004C0000895DB980895DC980895DD980895DE98E6
:1004D0000895DF980895D99882E08A95F1F700C0D1
:1004E000D99A82E08A95F1F700C00895D99882E000
:1004F0008A95F1F700C00895CF93DF93EC010E9435
:1005000076028DE08A95F1F70000C230D10589F0BE
:100510002CF4209751F0219799F409C0C430D105EB
:1005200061F04CF0259761F40AC0DA9A09C0DB9AB1
:1005300007C0DC9A05C0DD9A03C0DE9A01C0DF9ACD
:10054000DF91CF9108950F931F93CF93DF931F9265
:10055000CDB7DEB7D09A08E010E080FDD89A80FFD2
:10056000D898869589830E946B0201501109898170
:100570000115110591F70F90DF91CF911F910F9108
:100580000895AEE0B0E0E7ECF2E00C946D050D8963
:100590001E8986E08C831A8309838FEF9FE79E83F1
:1005A0008D83CE014996AC016F89788DCE0101967D
:1005B0000E94E302EF81F885E00FF11F10822E9672
:1005C000E4E00C948905ACE0B0E0E9EEF2E00C94D4
:1005D0005F057C016B018A01FC0117821682838111
:1005E00081FFC6C188248394912C8C0E9D1EF70137
:1005F0009381F60193FD859193FF81916F0188238B
:1006000009F4B2C1853239F493FD859193FF81914C
:100610006F01853229F4B70190E00E94D504E7CF3D
:10062000512C312C20E02032A8F48B3261F028F4D8
:10063000803251F0833271F40BC08D3239F0803347
:1006400049F4216028C02260246025C0286023C0AE
:10065000206121C027FD27C0382F30533A3078F46D
:1006600026FF06C0FAE05F9E300D1124532E13C002
:100670008AE0389E300D1124332E20620CC08E3259
:1006800021F426FD71C1206406C08C3611F4206867
:1006900002C0883641F4F60193FD859193FF819164
:1006A0006F018111C0CF982F9554933018F090525C
:1006B000933028F40C5F1F4FFFE3F9830DC083369E
:1006C00031F0833771F0833509F05EC023C0F80143
:1006D000808189830E5F1F4F44244394512C540121
:1006E00015C03801F2E06F0E711CF801A080B180D6
:1006F00026FF03C0652D70E002C06FEF7FEFC501DC
:100700002C870E94CA042C0183012C856FE7262EBA
:10071000222218C03801F2E06F0E711CF801A0808F
:10072000B18026FF03C0652D70E002C06FEF7FEF40
:10073000C5012C870E94BF042C012C8550E8252E72
:10074000222A830123FC1CC006C0B70180E290E08E
:100750000E94D5043A94832D90E048165906A8F3D8
:100760000FC0F50127FC859127FE81915F01B7013C
:1007700090E00E94D50431103A94F1E04F1A5108EC
:100780004114510471F7EDC0843611F0893641F5FA
:10079000F80127FF07C060817181828193810C5F1E
:1007A0001F4F08C060817181882777FD8095982F41
:1007B0000E5F1F4F4FE6B42EB22297FF09C09095EF
:1007C0008095709561957F4F8F4F9F4FF0E8BF2ABE
:1007D0002AE030E0A4010E940105A82EA81843C019
:1007E000853731F43FEEB32EB2222AE030E024C048
:1007F00099EFB92EB2228F36B9F020F4883509F07E
:10080000B3C00DC0803721F0883709F0ADC002C0F9
:1008100020E1B22AB4FE0BC084E0B82A08C024FF4D
:1008200009C0E6E0BE2A06C028E030E005C020E1AD
:1008300030E002C020E132E0F801B7FE07C060817D
:100840007181828193810C5F1F4F06C0608171812D
:1008500080E090E00E5F1F4FA4010E940105A82ECA
:10086000A818FFE7BF22B6FE0BC02B2D2E7FA514C4
:1008700050F4B4FE0AC0B2FC08C02B2D2E7E05C079
:100880007A2C2B2D03C07A2C01C0752C24FF0DC0AF
:10089000FE01EA0DF11D8081803311F4297E09C02B
:1008A00022FF06C07394739404C0822F867809F0E7
:1008B000739423FD14C020FF0FC05A2C731460F4EE
:1008C000530C5718732C08C0B70180E290E02C87B6
:1008D0000E94D50473942C857314B0F304C0731470
:1008E00010F4371801C0312C24FF12C0B70180E387
:1008F00090E02C870E94D5042C8522FF1EC021FF8A
:1009000003C088E590E002C088E790E0B7010CC022
:10091000822F867891F021FD02C080E201C08BE237
:1009200027FD8DE2B70190E00E94D50406C0B70113
:1009300080E390E00E94D5045A94A514C0F3AA94D1
:10094000F401EA0DF11DB701808190E00E94D50409
:10095000A110F5CF06C0B70180E290E00E94D50457
:100960003A943110F8CF43CEF7012681378102C087
:100970002FEF3FEFC9012C96E2E10C947B05FC01BF
:100980000590615070400110D8F7809590958E0FBA
:100990009F1F0895FC016150704001900110D8F72D
:1009A000809590958E0F9F1F08950F931F93CF935F
:1009B000DF938C01EB018B8181FD03C00FEF1FEFF3
:1009C0001AC082FF0DC02E813F818C819D81281726
:1009D000390764F4E881F9810193F983E88306C05B
:1009E000E885F985802F0995892B41F78E819F81B4
:1009F00001969F838E83C801DF91CF911F910F9144
:100A00000895FA01AA27283051F1203181F1E894A4
:100A10006F936E7F6E5F7F4F8F4F9F4FAF4FB1E0F1
:100A20003ED0B4E03CD0670F781F891F9A1FA11DEC
:100A3000680F791F8A1F911DA11D6A0F711D811DED
:100A4000911DA11D20D009F468943F912AE0269FB2
:100A500011243019305D3193DEF6CF010895462F11
:100A60004770405D4193B3E00FD0C9F7F6CF462FF2
:100A70004F70405D4A3318F0495D31FD405241935B
:100A800002D0A9F7EACFB4E0A69597958795779518
:100A90006795BA95C9F700976105710508959B019F
:100AA000AC010A2E06945795479537952795BA9528
:100AB000C9F7620F731F841F951FA01D08952F9201
:100AC0003F924F925F926F927F928F929F92AF92DE
:100AD000BF92CF92DF92EF92FF920F931F93CF932B
:100AE000DF93CDB7DEB7CA1BDB0B0FB6F894DEBFC2
:100AF0000FBECDBF09942A88398848885F846E84E8
:100B00007D848C849B84AA84B984C884DF80EE8031
:100B1000FD800C811B81AA81B981CE0FD11D0FB63A
:100B2000F894DEBF0FBECDBFED010895F894FFCF5E
:100B30004453313632302D5445535400253364200C
:0A0B400025632563202025630000D3
:00000001FF
