:1000000010C022C021C020C01FC01EC01DC01CC007
:100010001BC01AC019C018C017C016C015C014C024
:1000200013C011241FBECFE5D2E0DEBFCDBF11E06B
:10003000A0E6B0E0E2E1F9E002C005900D92A43E36
:10004000B107D9F757D363C4DBCF80B58F7B80BDB1
:10005000599883E389B910BC88E18AB986EB80BDE1
:1000600008955F9B02C08CB1FCCF08955D9BFECFCD
:100070008CB908958DE0FADF8AE0F8CF1F93CF9313
:10008000DF93EC011991112349F01A3011F01D3062
:1000900011F48DE0EBDF812FE9DFF4CFDF91CF9119
:1000A0001F9108955F9BFECF8CB10895282F30E0FB
:1000B000C901C0978A30910598F0C901815491090E
:1000C000069718F4C901C7970895C9018156910987
:1000D000069720F4C90187559109089587E490E0B7
:1000E0000895CF93DF9300D01F92CDB7DEB71B8268
:1000F000682F62956F70462F50E070EF7603900185
:100100001124280F311D70E0E0E080E090E0605D98
:10011000F0E3F20F4817590709F4762F281739072B
:1001200009F4EF2F01968A309105A1F76E2F8AE02E
:1001300090E0E7E3E40F4817590709F47E2F2817EA
:10014000390711F467E3620F01968031910599F741
:1001500079836A83CE01019691DF0F900F900F9003
:10016000DF91CF91089580B38095817008950F93AA
:100170001F93CF93DF937EDF88E690E07FDF92DFEF
:10018000C82F74DF8C2F92DF182F00E08BDFC82F71
:100190006DDF8C2F8BDFEC0184E0CC0FDD1F8A95A7
:1001A000E1F7C00FD11F7EDF182F60DF812F7EDFC8
:1001B000C80FD91FC11528E0D20728F08FE790E0BB
:1001C0005DDFCFEFD7E056DF55DF87E890E056DF01
:1001D0009D2F80E08E01081B190B8D2F82DF802F51
:1001E00080DF48DF47DF85E990E048DF43DF8BEBC6
:1001F00090E044DF3FDF8FED90E040DF3BDF3ADF10
:10020000CE01DF91CF911F910F9108958FE19EE470
:100210000197F1F700C000000895982F92959F7004
:1002200095BB292F206125BB95BBEFE1FEE43197FB
:10023000F1F700C000008F7085BB982F906195BBCF
:1002400085BB8FE19EE40197F1F700C0000008959F
:100250008FE19EE40197F1F700C000008FE19EE47A
:100260000197F1F700C000008FE19EE40197F1F7DC
:1002700000C000008FEF84BB15BA8FE19EE40197A8
:10028000F1F700C0000083E085BB93E195BB85BB1F
:100290008FE19EE40197F1F700C000008FE19EE43A
:1002A0000197F1F700C0000083E085BB93E195BBA7
:1002B00085BB8FE19EE40197F1F700C0000083E069
:1002C00085BB93E195BB85BB8FE19EE40197F1F778
:1002D00000C0000082E085BB92E195BB85BB8FE149
:1002E0009EE40197F1F700C0000088E296DF8CE001
:1002F00094DF81E092DF86E090CF282F22952F7047
:10030000922F906295BB206325BB95BBEFE1FEE485
:100310003197F1F700C000008F70982F906295BB65
:10032000806385BB95BB8FE19EE40197F1F700C028
:1003300000000895CF93DF93EC018991882311F099
:10034000DCDFFBCFDF91CF910895CF93C82F65DF1E
:1003500086E191E0EFDF8C2FCF915FCFCF93DF93DA
:1003600000D01F92CDB7DEB71B82682F62956F70E9
:10037000462F50E070EF760390011124280F311DB5
:1003800070E0E0E080E090E0605DF0E3F20F48179D
:10039000590709F4762F2817390709F4EF2F01962A
:1003A0008A309105A1F76E2F8AE090E0E7E3E40F31
:1003B0004817590709F47E2F2817390711F467E306
:1003C000620F01968031910599F779836A83CE0196
:1003D0000196B0DF0F900F900F90DF91CF910895AD
:1003E0009FEF91BB9ABB8BBB959A95981ABA979839
:1003F0009BBB89B3979A08959FEF91BB9ABB8BBB28
:10040000959A95986BBB9698969A08950F931F931B
:10041000CF93DF93EC018B018FEF81BB80EC82BB2C
:1004200080E0DEDF817021F461E080E0E5DFF8CF7D
:1004300060E084E0E1DF6FEF85E0DEDF688186E089
:10044000DBDFF801608187E0D7DF6AE188E0D4DF95
:1004500067E48FE1D1DF6EE580E0CEDF6CE081E024
:10046000DF91CF911F910F91C7CF04DE03DE87E2AA
:1004700091E004DEFFDDFEDD89E391E0FFDD82E057
:10048000AFDF2FDEF7DD83E491E0F8DD8AE0A8DF5F
:1004900028DEF0DD8DE491E0F1DD8BE0A1DF21DEEF
:1004A000E9DD87E591E0EADD8CE09ADF1ADE80E2A3
:1004B000DDDD8DE095DF15DE80E2D8DD8EE090DFBA
:1004C00010DE80E2D3DD8FE08BDF0BDE80E2CEDD5D
:1004D00080E186DF06DE80E2C9DD81E181DF01DEC9
:1004E00080E2C4DD82E17CDFFCDD80E2BFDD83E110
:1004F00077DFF7DD80E2BADDBDDD81E691E0BEDDCC
:1005000084E16EDFEEDDB6DD8BE691E0B7DD85E1FF
:1005100067DFE7DDAFDD85E791E0B0DD86E160DF35
:10052000E0DD80E2A3DD87E15BDFDBDD80E29EDDF5
:1005300088E156DFD6DD80E299DD89E151DFD1DD4A
:1005400080E294DD8AE14CDFCCDD80E28FDD8BE15F
:1005500047DFC7DD80E28ADD8CE142DFC2DD80E279
:1005600085DD8DE13DDFBDDD80E280DD83DD64E0A2
:1005700081E042CFCF93DF9384E132DFC82F85E162
:100580002FDFD82F82E02CDF80FF0AC0D295D695CE
:10059000D77028E0C29FC00111248D0F911D02C0A9
:1005A00080E090E0DF91CF9108950F931F93CF9358
:1005B000DF938C01EB0182E013DF82FFFCCFB801F7
:1005C00093E0769567959A95E1F78AE015DF602FBD
:1005D0006295660F607E68608BE00EDF68818CE05C
:1005E0000BDF69818DE008DF6A818EE005DF6B81BA
:1005F0008FE002DF6C8180E1FFDE6D8181E1FCDE56
:100600006E8182E1F9DE6F8183E1F6DE61E081E0F7
:10061000DF91CF911F910F91EFCE0F931F93CF9347
:10062000DF93A8DFEC0188EAF8DD8FE791E082DE56
:100630009D2F80E08E01081B190B8D2F8FDE802FE0
:100640008DDE85E291E076DEC6E18C2FC9DE55DED7
:10065000CF5FCE31D1F7DF91CF911F910F910ACDAE
:10066000EF92FF920F931F93CF93DF93CDB7DEB737
:1006700029970FB6F894DEBF0FBECDBF8C0112DDF7
:10068000F9DC83E891E0FADCF5DCF12C2AE2E22ED9
:1006900009DD8D3061F4E1E0F0E0EC0FFD1FEF0DBE
:1006A000F11DE082F39498E0F912F5CF03C0813692
:1006B00008F08052E1E0F0E0EC0FFD1FEF0DF11DBE
:1006C0008083D4DCF39487E08F1510F71986D2DC91
:1006D000BE016F5F7F4FC80168DF29960FB6F8949F
:1006E000DEBF0FBECDBFDF91CF911F910F91FF9065
:1006F000EF900895CF93DF93CDB7DEB72C970FB669
:10070000F894DEBF0FBECDBF83E08B878CE18A8774
:100710009CDCA7DC9DDD8FEF8ABB87BB11BABE01D5
:10072000665F7F4FCE010B9671DE9FDE81E00DDEAE
:1007300083EB91E0FFDD88EA08DE19DD8C0160E6DD
:1007400070E033DF812E80E0702E781AC8010196A8
:10075000692E20E0582E521A9C0143E036952795C9
:100760004A95E1F7422E982E9294990C50EE9522DC
:10077000892D8860982EE12CF12C6AE0A62EB12CF0
:1007800082E02EDE80FF95C048DF84E129DED82E8E
:1007900085E126DEC82E82E023DE80FF87C0C2947A
:1007A000C69437E0C32298E0D99E900111242C0D05
:1007B000311D2230310509F05EC0FE0131966F0116
:1007C00096E1892F9C870CDEF60181936F019C8551
:1007D0009F5F9E31B1F7198684EC91E04FDCCE012A
:1007E00001964CDC8BEC91E049DC8DE890E046DC36
:1007F000882D77DC872D75DC8BEC91E03FDC8DEC70
:1008000091E03CDC862D6DDC852D6BDC8BEC91E082
:1008100035DC88ED91E032DC80E063DC82E061DC95
:100820008BEC91E02BDC642D8AE0E6DD692D8BE01A
:10083000E3DD61E48CE0E0DD63E48DE0DDDD6BE4CD
:100840008EE0DADD6EE48FE0D7DD6FE480E1D4DDA9
:1008500067E581E1D1DD6DE282E1CEDD60E36E0D21
:1008600083E1CADDC7010196B5012AD07C0161E0B0
:1008700081E0C2DD1BC023303105C1F4CE010196F9
:100880006C0196E1892F9C87ABDDF60181936F01A6
:100890009C859F5F9E31B1F719868EED91E0EEDB6E
:1008A000CE010196EBDB8BEC91E0E8DB64E081E0CC
:1008B000A3DD59DC882309F463CFC801D1DE60CF02
:1008C00097FB072E16F4009406D077FD08D00BD0C6
:1008D00007FC05D03EF4909581959F4F0895709543
:1008E00061957F4F0895AA1BBB1B51E107C0AA1F4A
:1008F000BB1FA617B70710F0A61BB70B881F991FC1
:100900005A95A9F780959095BC01CD010895F8946A
:02091000FFCF17
:10091200204F4E2D4C494E45456E746572204964F8
:10092200547820283030302D374646293A2000208E
:100932004572726F7221005573696E672049645463
:1009420078203D200046726F6D206E6F7720616EB9
:1009520064206F6E20796F752068617665207477E8
:100962006F2063686F696365733A00312E2050729D
:10097200657373205B456E7465725D20746F2077BA
:10098200726974652061206D6573736167650032F9
:100992002E20446F6E277420707265737320616E0F
:1009A20079206B657920746F207761697420666F96
:1009B2007220616E20696E636F6D696E67206D656E
:1009C20073736167650020202020202020202020D2
:1009D20020202020202000534A4131303030205244
:1009E200656769737465727300535441545553209B
:1009F2003D200054585F494420203D200054585F58
:100A02004C454E203D200054585F425546203D2023
:100A12000052585F494420203D200052585F4C4507
:100A22004E203D200052585F425546203D20005244
:100A3200582000456E7465722061206D6573736184
:100A4200676520746F2073656E6420286D61786914
:100A52006D756D20382063686172616374657273AD
:100A6200293A002A2A2A2043414E204E4F4445204B
:100A72002A2A2A004D6564643A20000A0049645417
:100A82007841636B203D20005258203D2000416395
:040A92006B3A20009B
:00000001FF
